:0400000007EF00F016
:0A000800698235ED0EF0CFEF12F023
:10100000003132334134353642373839432A3023C0
:10101000440001000A006400E803102701001000EA
:101020000001001000070302100417322042616320
:101030006B20746F207374617274206D656E75001F
:10104000507265737320312F322F4120746F2073DB
:10105000746F70003031323334353637383961626D
:101060006364656600536F7274696E6720537461C0
:10107000727465640054696D6520757365643A2007
:1010800025642073002020202020202020202020E4
:1010900020202000253032782F253032782F25303F
:1010A000327800253032783A253032783A2530329D
:1010B00078004120536F7274696E670057656C63E6
:1010C0006F6D652100312054696D65002564002530
:0310D000780000A5
:1010D400250E306E000E316E74D1250E3818D8B43A
:1010E40004D038503CEC13F06CD1000E376E000E77
:1010F400366E000E356E03D03584234A242A23C06D
:10110400F6FF24C0F7FF0800F550300AD8B4F4D72E
:1011140023C0F6FF24C0F7FF0800F5501BEC13F0C2
:10112400D8A035D0000E376E000E366E36C017F0DC
:1011340037C018F0000E1A6E0A0E196EE2EC12F0A7
:1011440017C036F018C037F0D00E2B6EFF0E2C6E81
:1011540023C0F6FF24C0F7FF0800F5502D6E2E6A59
:101164002B502D262C502E222D5036262E50372231
:10117400234A242A23C0F6FF24C0F7FF0800F550B1
:101184001BEC13F0D8A003D0D1D7358E17D023C0D1
:10119400F6FF24C0F7FF234A242A0800F5CF38F0CD
:1011A4003850000AD8B41200640AD8B407D00D0A23
:1011B400D8B404D0110AD8B4E8D703D135BE15D0B9
:1011C40030C0D9FF31C0DAFFDECF33F0DDCF34F0E9
:1011D400020E3026000E312234AE44D0030E3512F6
:1011E400336C341ED8B0342A3DD030C0D9FF31C05E
:1011F400DAFFDECF33F0DDCF34F0020E3026000EFE
:10120400312230D0010E386E050E3818D8B432D0E1
:101214003850020D120EF324F66E100EF420F76E01
:101224000900F550335C0900F5503458D8A022D099
:10123400382AEAD7010E386E040E3818D8B41AD0FA
:101244003850020D1C0EF324F66E100EF420F76EC7
:101254000900F550335C0900F5503458D8A00AD081
:10126400382AEAD73550800B000AD8B4CBD7800A85
:10127400D8B4E0D736503710D8B409D035C02BF0E5
:10128400030E2B16D8B403D03606D8A03706800E2A
:1012940038BE7F0E2B6E3650385C3750800A2B5880
:1012A400D8B007D03850365E000E38BEFF0E375A1D
:1012B40004D0000E376E000E366E35A414D035C03F
:1012C4002BF0030E2B16D8B403D02D0E3CEC13F0E8
:1012D40036503710D8B41ED0300E3CEC13F036061E
:1012E400D8A03706F5D736503710D8B40AD0200E18
:1012F4003CEC13F03606D8A0370636503710D8A485
:10130400F6D735C02BF0030E2B16D8B403D02D0E10
:101314003CEC13F038C032F050D03250020D120EB3
:10132400F324F66E100EF420F76E0900F5CF19F0D1
:101334000A00F5CF1AF033C017F034C018F003ECEC
:1013440012F017C01EF018C01FF0000E216E0A0E16
:10135400206E9AEC12F01E50300F386E2BD033C032
:1013640017F034C018F03250020D1C0EF324F66E40
:10137400100EF420F76E0900F5CF19F00A00F5CF2E
:101384001AF003EC12F017500F0B2F6E2F50010DB3
:10139400540EF324F66E100EF420F76E0800F5CF09
:1013A40038F008D03550800B000AD8B4B6D7800A7C
:1013B400D8B4D5D738503CEC13F032063228D8A430
:1013C400F1D723C0F6FF24C0F7FF234A242A0800DC
:1013D400F5CF38F03850D8B412007FD6000E2E6EF8
:1013E400000E2D6E000E226E000E216E000E246E75
:1013F400000E236E000E266E000E256E26BE06D04D
:10140400100E255C270E2658D8B029D0000EBBEC50
:1014140012F0C4501E6E1F6A1E502D5C2E50800A9E
:10142400206E1F50800A2058D8B003D0C4CF2DF0AE
:101434002E6A1E0EC46404D0000E246E010E236EA8
:101444002EBE0AD02E5004E1A00E2D5CD8A004D0EC
:10145400000E246E010E236E254A262ACFD7020ED3
:101464001F6E040E1E6EBA0EE82EFED71E2EFCD77B
:101474001F2EFAD700D081A004D0000E226E000ED9
:1014840003D0000E226E010E216E8C90000E186E99
:10149400000E176E20EC0FF0000E186E000E176E83
:1014A400ABEC0EF0060E1F6E130E1E6EAE0EE82E83
:1014B400FED71E2EFCD71F2EFAD7000E186E000E74
:1014C400176E20EC0FF0000E186E000E176EABECCA
:1014D4000EF08C8021502210D8A445D02350241023
:1014E400D8B405D0000E1D6E020E1C6E1200000E44
:1014F400286E000E276E28BE06D0100E275C270E1D
:101504002858D8B01ED0000EBBEC12F0C4501E6E8A
:101514001F6A1E502D5C2E50800A206E1F50800AB8
:101524002058D8B003D0C4CF2DF02E6A1E0EC46448
:1015340005D0000E1D6E020E1C6E1200274A282ACA
:10154400DAD72EBE0BD02E5004E1A00E2D5CD8A00D
:1015540005D0000E1D6E020E1C6E1200000E1D6ED4
:10156400010E1C6E1200000E2A6E000E296E2ABE99
:1015740006D0100E295C270E2A58D8B01ED0010EB2
:10158400BBEC12F0C4501E6E1F6A1E502D5C2E5010
:10159400800A206E1F50800A2058D8B003D0C4CFD0
:1015A4002DF02E6A1E0EC46405D0000E1D6E040EAE
:1015B4001C6E1200294A2A2ADAD72EBE0BD02E50CE
:1015C40004E1A00E2D5CD8A005D0000E1D6E040E03
:1015D4001C6E12008C90000E186E000E176E20EC1C
:1015E4000FF0000E186E000E176EABEC0EF0060E28
:1015F4001F6E130E1E6EAE0EE82EFED71E2EFCD7E7
:101604001F2EFAD7000E186E000E176E20EC0FF086
:10161400000E186E000E176EABEC0EF08C80000EF0
:101624002C6E000E2B6E2CBE06D0100E2B5C270EDB
:101634002C58D8B01ED0010EBBEC12F0C4501E6E54
:101644001F6A1E502D5C2E50800A206E1F50800A87
:101654002058D8B003D0C4CF2DF02E6A1E0EC46417
:1016640005D0000E1D6E040E1C6E12002B4A2C2A8F
:10167400DAD72EBE0BD02E5004E1A00E2D5CD8A0DC
:1016840005D0000E1D6E040E1C6E1200000E1D6EA1
:10169400030E1C6E1200020E1C181D10D8A442D09A
:1016A400000E186E010E176EABEC0EF0150E1F6EC9
:1016B4004B0E1E6EBE0EE82EFED71E2EFCD71F2E1E
:1016C400FAD700D0000E216E000E206E21BE06D087
:1016D40021501BE1050E205CD8B017D0000E186E07
:1016E400010E176EABEC0EF0000E186E010E176EA5
:1016F40020EC0FF01A0E1E6EF80EE82EFED71E2EEA
:10170400FCD700D0204A212AE1D7000E186E000E23
:10171400176E20EC0FF0000E186E000E176EABEC77
:101724000EF012001C041D10D8A442D0000E186E36
:10173400020E176EABEC0EF0150E1F6E4B0E1E6EE6
:10174400BE0EE82EFED71E2EFCD71F2EFAD700D0D1
:10175400000E236E000E226E23BE06D023501BE122
:10176400050E225CD8B017D0000E186E020E176E4C
:10177400ABEC0EF0000E186E010E176E20EC0FF09D
:101784001A0E1E6EF80EE82EFED71E2EFCD700D0C1
:10179400224A232AE1D7000E186E000E176E20ECA1
:1017A4000FF0000E186E000E176EABEC0EF0120068
:1017B400030E1C181D10D8A442D0000E186E020E81
:1017C400176EABEC0EF0150E1F6E4B0E1E6EBE0E9A
:1017D400E82EFED71E2EFCD71F2EFAD700D0000EFF
:1017E400256E000E246E25BE06D025501BE1050E85
:1017F400245CD8B017D0000E186E020E176EABEC36
:101804000EF0000E186E020E176E20EC0FF01A0E7A
:101814001E6EF80EE82EFED71E2EFCD700D0244AEA
:10182400252AE1D7000E186E000E176E20EC0FF07B
:10183400000E186E000E176EABEC0EF01200040EC4
:101844001C181D10D8A41200000E186E010E176E7D
:10185400ABEC0EF0150E1F6E4B0E1E6EBE0EE82E78
:10186400FED71E2EFCD71F2EFAD700D0000E276EEF
:10187400000E266E27BE06D027501BE1050E265CFF
:10188400D8B017D0000E186E010E176EABEC0EF028
:10189400000E186E020E176E20EC0FF01A0E1E6E5C
:1018A400F80EE82EFED71E2EFCD700D0264A272A93
:1018B400E1D7000E186E000E176E20EC0FF0000E2C
:1018C400186E000E176EABEC0EF01200010E42EC17
:1018D40013F0620E1A6E000E1B6EA9EC10F0000ECF
:1018E4000001C06F000EBF6F0001C0BF08D000012F
:1018F400C05139E1070E0001BF5DD8B034D0620E8B
:101904000001BF25D96E000E0001C021DA6EDF5040
:10191400396E393A0F0E39160F0E391639500A0D31
:10192400620E0001BF25D96E000E0001C021DA6EDF
:10193400DF500F0B3A6E3B6AF3503A26F4503B22C9
:10194400D8900001BF35D96E0001C035DA6EA30E00
:10195400D926000EDA223AC0DEFF3BC0DDFF0001CB
:10196400BF4BC02BC1D7000E0001C26F000EC16F68
:101974000001C2BF08D00001C25139E1070E0001C5
:10198400C15DD8B034D09C0E0001C125D96E000EC3
:101994000001C221DA6EDF50396E393A0F0E391662
:1019A4000F0E391639500A0D9C0E0001C125D96E4F
:1019B400000E0001C221DA6EDF500F0B3A6E3B6A53
:1019C400F3503A26F4503B22D8900001C135D96E29
:1019D4000001C235DA6EB10ED926000EDA223AC001
:1019E400DEFF3BC0DDFF0001C14BC22BC1D75D5000
:1019F4005E10D8A42ED0B1C039F0B2C03AF0391E6E
:101A04003A1E394A3A2A20EEB3F0DECF3BF0DDCF5E
:101A14003CF03B1E3C1E3B4A3C2A0001A5513B24A2
:101A2400176E0001A6513C20186E000E1A6E3C0E73
:101A3400196EE2EC12F0395017263A5018220001C0
:101A4400A35117245F6E0001A4511820606E5D4AF3
:101A54005E2A8B92750E236E100E246E5FC025F0E5
:101A640060C026F06AEC08F0060E3A6E130E396E6A
:101A7400AE0EE82EFED7392EFCD73A2EFAD78C902C
:101A84001200000E456E000E446E000E476E000EEE
:101A9400466E000E496E000E486E010E42EC13F0C5
:101AA400020E436E040E426EBA0EE82EFED7422E8C
:101AB400FCD7432EFAD700D0650E236E100E246E89
:101AC4006AEC08F0C00E42EC13F0400E236E100EC8
:101AD400246E6AEC08F09C0E1A6E000E1B6EA9ECC4
:101AE40010F0800E42EC13F041D0000E186E000E80
:101AF400176E20EC0FF0000E186E000E176EABEC94
:101B04000EF08FEC0FF039043A10D8A41FD08C805B
:101B1400800E42EC13F0C00E42EC13F0F0EC09F02E
:101B24001CC04AF01DC04BF08C904AC01CF04BC046
:101B34001DF04DEC0BF0CC0E236E100E246E4AC03B
:101B440025F04BC026F06AEC08F010D025EC11F01B
:101B54008C90060E436E130E426EAE0EE82EFED728
:101B6400422EFCD7432EFAD7DAEC11F0020E61189C
:101B7400D8A41200BAD7010E42EC13F0040E3A6E48
:101B84000C0E396E340EE82EFED7392EFCD73A2EC1
:101B9400FAD765D062EC13F0000E196ED10E186EF0
:101BA40054EC13F0000E3B6E050E3B6401D00ED0D6
:101BB4003B50010D4C0EF324D96E000EF420DA6E66
:101BC400010EF5EC12F0DF6E3B2AEED7000EF5ECB9
:101BD40012F0526E5EEC13F0800E42EC13F0940E91
:101BE400236E100E246E52C025F0266A51C027F0D1
:101BF400286A50C029F02A6A6AEC08F0C00E42EC48
:101C040013F0A30E236E100E246E4EC025F0266A28
:101C14004DC027F0286A4CC029F02A6A6AEC08F003
:101C240062EC13F0000E196ED00E186E54EC13F023
:101C3400000E196E000E186E54EC13F05EEC13F0E7
:101C44000B0E3A6E0C0E396E640EE82EFED7392E4A
:101C5400FCD73A2EFAD700D0800E42EC13F0610480
:101C6400D8A4120097D70600FACF08F0FBCF09F0EA
:101C7400E9CF0AF0EACF0BF0E1CF0CF0E2CF0DF0A0
:101C8400D9CF0EF0DACF0FF0F3CF10F0F4CF11F07C
:101C9400F6CF12F0F7CF13F0F8CF14F0F5CF15F01C
:101CA400F0A038D0C00E4EEC13F081380F0B0F0BA0
:101CB400166E1650010D010EF324F66E100EF4206C
:101CC400F76E0800F55048EC13F0020E6118D8A422
:101CD40002D0030E1ED01650D8A405D06150D8A44B
:101CE40019D0010E16D0030E1618D8A408D09C0ED5
:101CF400046E000E056EE7EC10F0020E0AD0160416
:101D0400D8A402D0000E05D0020E1618D8A402D012
:101D1400040E616EF09015C0F5FF14C0F8FF13C0F7
:101D2400F7FF12C0F6FF11C0F4FF10C0F3FF0FC09D
:101D3400DAFF0EC0D9FF0DC0E2FF0CC0E1FF0BC0FB
:101D4400EAFF0AC0E9FF09C0FBFF08C0FAFF699275
:101D5400110017501810D8A426D0000E1B6E000EC8
:101D64001A6E1BBE08D01B5005E10A0E1A5CD8B0CF
:101D7400120001D012008986040E196EE40EE82EBA
:101D8400FED7192EFCD700D08996310E196E0C0E91
:101D9400E82EFED7192EFCD71A4A1B2A1BBEEBD7F6
:101DA4001B504BE1E2D717041810D8A420D0000E22
:101DB4001B6E000E1A6E1BBE06D01B503EE10A0EAF
:101DC4001A5CD8B012008986060E196E300EE82E01
:101DD400FED7192EFCD700D089962F0E196EC00E8F
:101DE400E82EFED7192EFCD71A4A1B2AE4D7020E76
:101DF40017181810D8A41200000E1B6E000E1A6ECD
:101E04001BBE06D01B5019E10A0E1A5CD8B0120092
:101E14008986040E196E5F0EE82EFED7192EFCD7A4
:101E240000F08996310E196E910EE82EFED7192E08
:101E3400FCD700F01A4A1B2AE3D7120017501810D7
:101E4400D8A426D0000E1B6E000E1A6E1BBE08D03E
:101E54001B5005E10A0E1A5CD8B0120001D0120022
:101E64008D80040E196EE40EE82EFED7192EFCD7D1
:101E740000D08D90310E196E0C0EE82EFED7192E5F
:101E8400FCD71A4A1B2A1BBEEBD71B5045E1E2D7ED
:101E940017041810D8A420D0000E1B6E000E1A6E62
:101EA4001BBE06D01B5038E10A0E1A5CD8B01200D3
:101EB4008D800A0E196E160EE82EFED7192EFCD749
:101EC4008D902B0E196EDA0EE82EFED7192EFCD744
:101ED40000D01A4A1B2AE4D7020E17181810D8A4E7
:101EE4001200000E1B6E000E1A6E1BBE06D01B5095
:101EF40013E10A0E1A5CD8B012008D80640EE82E2D
:101F0400FED78D90340E196E8E0EE82EFED7192E44
:101F1400FCD71A4A1B2AE9D71200000E416E000EA4
:101F2400406E000E3F6E000E3E6E30D0800E42ECCE
:101F340013F0020EBBEC12F0C4503B6E3C6A3B50F3
:101F4400405C4150800A3D6E3C50800A3D58D8B0F8
:101F540003D0C4CF40F0416A200EC46005D0000E07
:101F64003A6E010E396E1200CF0E236E100E246EDF
:101F7400C4CF25F0266A6AEC08F00D0E3B6EFC0E09
:101F8400E82EFED73B2EFCD73E4A3F2A3FBECED793
:101F94003F5004E1320E3E5CD8A0C8D741BE0BD0FE
:101FA400415004E1200E405CD8A005D0000E3A6EEA
:101FB400000E396E1200000E3A6E010E396E1200D8
:101FC400E70E926E100E946E000E946E000E956ED7
:101FD400FB0E936E000E966E000E896E000E8A6ED6
:101FE400000E8B6E000E8C6E000E8D6E000EC26E97
:101FF4000C0EC16E310EC06EF08677EC12F0100E2E
:10200400246E270E256E000E266E000E276E57ECEA
:1020140011F062EC13F0000E196ED00E186E54EC31
:1020240013F0000E196E000E186E54EC13F05EECF3
:1020340013F0000E186E000E176E20EC0FF0000E59
:10204400186E000E176EABEC0EF0F28E1200000E3E
:102054001F6E000E206E000E216E000E226E1B50AD
:102064001C101D101E10D8B42AD0010E236E06D0E9
:10207400D8901B361C361D361E36232A1EAEF8D7C2
:10208400D8901F362036213622361B50175C1C5040
:1020940018581D5019581E501A58D8A009D01B5052
:1020A400175E1C50185A1D50195A1E501A5A1F8078
:1020B400D8901E321D321C321B32232EE1D71FC092
:1020C40017F020C018F021C019F022C01AF0120035
:1020D400010E42EC13F0800E42EC13F0030E3A6E44
:1020E400080E396E770EE82EFED7392EFCD73A2E1D
:1020F400FAD700F0BC0E236E100E246E6AEC08F0C2
:10210400870E236E100E246E6AEC08F02B0E236EDD
:10211400100E246E6AEC08F0C00E42EC13F0C50EEB
:10212400236E100E246E6AEC08F0850E236E100EDA
:10213400246E6AEC08F0B20E236E100E246E6AEC64
:1021440008F08C908B926150D8A41200FCD762ECFA
:1021540013F0000E196ED00E186E54EC13F0000E2E
:10216400196E000E186E54EC13F05EEC13F062EC72
:1021740013F0000E196ED10E186E54EC13F0000E0D
:102184001D6E000E1C6E1DBE06D01D5011E1060E04
:102194001C5CD8B00DD01C501A24D96E1D501B20C5
:1021A400DA6E010EF5EC12F0DF6E1C4A1D2AEBD735
:1021B40020EE06F01A50D9261B50DA22000EF5EC58
:1021C40012F0DF6E5EEC13F012006AEC13F0000EF6
:1021D400036ED00E026E59EC13F0000E036E000E67
:1021E400026E59EC13F066EC13F06AEC13F0000E77
:1021F400036ED10E026E59EC13F0000E076E000E42
:10220400066E07BE06D0075011E1060E065CD8B074
:102214000DD006500424D96E07500520DA6E010E45
:1022240008EC13F0DF6E064A072AEBD720EE06F01F
:102234000450D9260550DA22000E08EC13F0DF6EA4
:1022440066EC13F01200000E196E000E186E000EEC
:10225400196E000E186E19BE06D0195025E1C80E6D
:10226400185CD8B012008A848B82170E176E120E77
:10227400E82EFED7172EFCD700D08B828A941A0E34
:10228400176EF80EE82EFED7172EFCD700D08A94CE
:102294008B92040E176EE40EE82EFED7172EFCD791
:1022A40000D0184A192AD7D71200000EC76E280E7C
:1022B400C66E000EC56E000E176E120E186E7A0EE4
:1022C400196E000E1A6E24C028F025C029F026C00D
:1022D4002AF027C02BF0020ED890283629362A3649
:1022E4002B36E82EF9D728C01BF029C01CF02AC0D1
:1022F4001DF02BC01EF029EC10F01704C86E948654
:1023040094881200186E1850F00B176E8C500F0B37
:102314008C6E17508C108C6E8C96100EE82EFED797
:1023240000D08C86100EE82EFED700D01838F00BA3
:10233400186E1850F00B176E8C500F0B8C6E1750D4
:102344008C108C6E8C96100EE82EFED700D08C86E6
:10235400100EE82EFED700D01200026E0250F00BD1
:10236400016E8C500F0B8C6E01508C108C6E8C9601
:10237400100EE82EFED700D08C86100EE82EFED765
:1023840000D00238F00B026E0250F00B016E8C503C
:102394000F0B8C6E01508C108C6E8C96100EE82EE8
:1023A400FED700D08C86100EE82EFED700D0120087
:1023B40011D08B84050E176E5C0EE82EFED7172EF7
:1023C400FCD78B94300E176E940EE82EFED7172E82
:1023D400FCD700D081A612D0ECD78B84050E176EE3
:1023E4005C0EE82EFED7172EFCD78B94300E176E9A
:1023F400940EE82EFED7172EFCD700D081B612001B
:10240400ECD7000E1D6E000E1C6E19501A10D8B4B5
:102414001CD0010E1B6E04D0D89019361A361B2A14
:102424001AAEFAD7D8901C361D361950175C1A50BC
:102434001858D8A005D01950175E1A50185A1C8085
:10244400D8901A3219321B2EEDD71CC017F01DC0BC
:1024540018F01200620E1A6E000E1B6EA9EC10F03A
:10246400940E236E100E246E68C025F0266A67C091
:1024740027F0286A66C029F02A6A6AEC08F0C00EC0
:1024840042EC13F0A30E236E100E246E64C025F0EC
:10249400266A63C027F0286A62C029F02A6A6AECB7
:1024A40008F01200E2EC0FF06150D8A403D06AECFB
:1024B40010F0FAD76104D8A403D0BDEC0DF0F4D722
:1024C400020E6118D8A403D043EC0DF0EDD7030E2F
:1024D4006118D8A403D068EC0CF0E6D7040E611898
:1024E400D8A4E2D72CEC12F0DFD7270E1A6EF50E23
:1024F400E82EFED71A2EFCD700F0330E42EC13F070
:10250400320E42EC13F0280E42EC13F00F0E42ECA4
:1025140013F0060E42EC13F0010E42EC13F0270EFA
:102524001A6EF50EE82EFED71A2EFCD700F0120014
:1025340020502110D8B418D0010E226E04D0D890A7
:1025440020362136222A21AEFAD720501E5C215093
:102554001F58D8A004D020501E5E21501F5AD89076
:1025640021322032222EF1D71EC01EF01FC01FF0D0
:102574001200186E000EC26E18C017F00F0E171658
:10258400D8901736D8901736C2503C0B1710C26E2D
:10259400C280C282C2A21200FDD700EE80F0230ED8
:1025A400EE6AE806FDE100EE4CF01D0EEE6AE80668
:1025B400FDE169906992000EF86E000154EF12F08B
:1025C40017501902F3CF1BF0F4CF1CF017501A0266
:1025D400F3501C2618501902F3501C261BC017F088
:1025E4001CC018F01200186E2AEC13F0C5862AECF1
:1025F40013F0C9CF19F02AEC13F01850D8A402D064
:10260400C58A01D0C59AC58819501200026E33ECF0
:1026140013F0C58633EC13F0C9CF03F033EC13F099
:102624000250D8A402D0C58A01D0C59AC5880350E7
:102634001200196E000E186E3A0E196005D02F0E96
:10264400196402D0010E186E18C017F0173012006A
:10265400C7B4FED7C5CF17F01F0E1716D8B4120093
:10266400F7D7C7B4FED7C5CF01F01F0E0116D8B4F3
:102674001200F7D7196E8C84195084EC11F01200F3
:10268400196E8C94195084EC11F01200036E8C8432
:102694000350AFEC11F01200036E8C940350AFECB6
:1026A40011F012002AEC13F018C0C9FF120033EC29
:1026B40013F002C0C9FF12002AEC13F0C584120003
:1026C4002AEC13F0C580120033EC13F0C584120019
:0826D40033EC13F0C580120085
:020000040020DA
:08000000FFFFFFFFFFFFFFFF00
:020000040030CA
:0E000000FF021F1EFF8381FF0FC00FE00F40A5
:00000001FF
