:0400000007EF00F016
<<<<<<< HEAD
:0A000800698235ED0EF0CFEF12F023
=======
:0A000800678287ED0AF042EF11F065
>>>>>>> parent of ff33206... 。
:10100000003132334134353642373839432A3023C0
:10101000440001000A006400E803102701001000EA
:101020000001001000070302100417322042616320
:101030006B20746F207374617274206D656E75001F
:10104000507265737320312F322F4120746F2073DB
:10105000746F70003031323334353637383961626D
:101060006364656600536F7274696E6720537461C0
:10107000727465640054696D6520757365643A2007
:1010800025642073002020202020202020202020E4
:1010900020202000253032782F253032782F25303F
:1010A000327800253032783A253032783A2530329D
:1010B00078004120536F7274696E670057656C63E6
<<<<<<< HEAD
:1010C0006F6D652100312054696D65002564002530
:0310D000780000A5
:1010D400250E306E000E316E74D1250E3818D8B43A
:1010E40004D038503CEC13F06CD1000E376E000E77
:1010F400366E000E356E03D03584234A242A23C06D
:10110400F6FF24C0F7FF0800F550300AD8B4F4D72E
:1011140023C0F6FF24C0F7FF0800F5501BEC13F0C2
:10112400D8A035D0000E376E000E366E36C017F0DC
:1011340037C018F0000E1A6E0A0E196EE2EC12F0A7
:1011440017C036F018C037F0D00E2B6EFF0E2C6E81
:1011540023C0F6FF24C0F7FF0800F5502D6E2E6A59
:101164002B502D262C502E222D5036262E50372231
:10117400234A242A23C0F6FF24C0F7FF0800F550B1
:101184001BEC13F0D8A003D0D1D7358E17D023C0D1
:10119400F6FF24C0F7FF234A242A0800F5CF38F0CD
:1011A4003850000AD8B41200640AD8B407D00D0A23
:1011B400D8B404D0110AD8B4E8D703D135BE15D0B9
:1011C40030C0D9FF31C0DAFFDECF33F0DDCF34F0E9
:1011D400020E3026000E312234AE44D0030E3512F6
:1011E400336C341ED8B0342A3DD030C0D9FF31C05E
:1011F400DAFFDECF33F0DDCF34F0020E3026000EFE
:10120400312230D0010E386E050E3818D8B432D0E1
:101214003850020D120EF324F66E100EF420F76E01
:101224000900F550335C0900F5503458D8A022D099
:10123400382AEAD7010E386E040E3818D8B41AD0FA
:101244003850020D1C0EF324F66E100EF420F76EC7
:101254000900F550335C0900F5503458D8A00AD081
:10126400382AEAD73550800B000AD8B4CBD7800A85
:10127400D8B4E0D736503710D8B409D035C02BF0E5
:10128400030E2B16D8B403D03606D8A03706800E2A
:1012940038BE7F0E2B6E3650385C3750800A2B5880
:1012A400D8B007D03850365E000E38BEFF0E375A1D
:1012B40004D0000E376E000E366E35A414D035C03F
:1012C4002BF0030E2B16D8B403D02D0E3CEC13F0E8
:1012D40036503710D8B41ED0300E3CEC13F036061E
:1012E400D8A03706F5D736503710D8B40AD0200E18
:1012F4003CEC13F03606D8A0370636503710D8A485
:10130400F6D735C02BF0030E2B16D8B403D02D0E10
:101314003CEC13F038C032F050D03250020D120EB3
:10132400F324F66E100EF420F76E0900F5CF19F0D1
:101334000A00F5CF1AF033C017F034C018F003ECEC
:1013440012F017C01EF018C01FF0000E216E0A0E16
:10135400206E9AEC12F01E50300F386E2BD033C032
:1013640017F034C018F03250020D1C0EF324F66E40
:10137400100EF420F76E0900F5CF19F00A00F5CF2E
:101384001AF003EC12F017500F0B2F6E2F50010DB3
:10139400540EF324F66E100EF420F76E0800F5CF09
:1013A40038F008D03550800B000AD8B4B6D7800A7C
:1013B400D8B4D5D738503CEC13F032063228D8A430
:1013C400F1D723C0F6FF24C0F7FF234A242A0800DC
:1013D400F5CF38F03850D8B412007FD6000E2E6EF8
:1013E400000E2D6E000E226E000E216E000E246E75
:1013F400000E236E000E266E000E256E26BE06D04D
:10140400100E255C270E2658D8B029D0000EBBEC50
:1014140012F0C4501E6E1F6A1E502D5C2E50800A9E
:10142400206E1F50800A2058D8B003D0C4CF2DF0AE
:101434002E6A1E0EC46404D0000E246E010E236EA8
:101444002EBE0AD02E5004E1A00E2D5CD8A004D0EC
:10145400000E246E010E236E254A262ACFD7020ED3
:101464001F6E040E1E6EBA0EE82EFED71E2EFCD77B
:101474001F2EFAD700D081A004D0000E226E000ED9
:1014840003D0000E226E010E216E8C90000E186E99
:10149400000E176E20EC0FF0000E186E000E176E83
:1014A400ABEC0EF0060E1F6E130E1E6EAE0EE82E83
:1014B400FED71E2EFCD71F2EFAD7000E186E000E74
:1014C400176E20EC0FF0000E186E000E176EABECCA
:1014D4000EF08C8021502210D8A445D02350241023
:1014E400D8B405D0000E1D6E020E1C6E1200000E44
:1014F400286E000E276E28BE06D0100E275C270E1D
:101504002858D8B01ED0000EBBEC12F0C4501E6E8A
:101514001F6A1E502D5C2E50800A206E1F50800AB8
:101524002058D8B003D0C4CF2DF02E6A1E0EC46448
:1015340005D0000E1D6E020E1C6E1200274A282ACA
:10154400DAD72EBE0BD02E5004E1A00E2D5CD8A00D
:1015540005D0000E1D6E020E1C6E1200000E1D6ED4
:10156400010E1C6E1200000E2A6E000E296E2ABE99
:1015740006D0100E295C270E2A58D8B01ED0010EB2
:10158400BBEC12F0C4501E6E1F6A1E502D5C2E5010
:10159400800A206E1F50800A2058D8B003D0C4CFD0
:1015A4002DF02E6A1E0EC46405D0000E1D6E040EAE
:1015B4001C6E1200294A2A2ADAD72EBE0BD02E50CE
:1015C40004E1A00E2D5CD8A005D0000E1D6E040E03
:1015D4001C6E12008C90000E186E000E176E20EC1C
:1015E4000FF0000E186E000E176EABEC0EF0060E28
:1015F4001F6E130E1E6EAE0EE82EFED71E2EFCD7E7
:101604001F2EFAD7000E186E000E176E20EC0FF086
:10161400000E186E000E176EABEC0EF08C80000EF0
:101624002C6E000E2B6E2CBE06D0100E2B5C270EDB
:101634002C58D8B01ED0010EBBEC12F0C4501E6E54
:101644001F6A1E502D5C2E50800A206E1F50800A87
:101654002058D8B003D0C4CF2DF02E6A1E0EC46417
:1016640005D0000E1D6E040E1C6E12002B4A2C2A8F
:10167400DAD72EBE0BD02E5004E1A00E2D5CD8A0DC
:1016840005D0000E1D6E040E1C6E1200000E1D6EA1
:10169400030E1C6E1200020E1C181D10D8A442D09A
:1016A400000E186E010E176EABEC0EF0150E1F6EC9
:1016B4004B0E1E6EBE0EE82EFED71E2EFCD71F2E1E
:1016C400FAD700D0000E216E000E206E21BE06D087
:1016D40021501BE1050E205CD8B017D0000E186E07
:1016E400010E176EABEC0EF0000E186E010E176EA5
:1016F40020EC0FF01A0E1E6EF80EE82EFED71E2EEA
:10170400FCD700D0204A212AE1D7000E186E000E23
:10171400176E20EC0FF0000E186E000E176EABEC77
:101724000EF012001C041D10D8A442D0000E186E36
:10173400020E176EABEC0EF0150E1F6E4B0E1E6EE6
:10174400BE0EE82EFED71E2EFCD71F2EFAD700D0D1
:10175400000E236E000E226E23BE06D023501BE122
:10176400050E225CD8B017D0000E186E020E176E4C
:10177400ABEC0EF0000E186E010E176E20EC0FF09D
:101784001A0E1E6EF80EE82EFED71E2EFCD700D0C1
:10179400224A232AE1D7000E186E000E176E20ECA1
:1017A4000FF0000E186E000E176EABEC0EF0120068
:1017B400030E1C181D10D8A442D0000E186E020E81
:1017C400176EABEC0EF0150E1F6E4B0E1E6EBE0E9A
:1017D400E82EFED71E2EFCD71F2EFAD700D0000EFF
:1017E400256E000E246E25BE06D025501BE1050E85
:1017F400245CD8B017D0000E186E020E176EABEC36
:101804000EF0000E186E020E176E20EC0FF01A0E7A
:101814001E6EF80EE82EFED71E2EFCD700D0244AEA
:10182400252AE1D7000E186E000E176E20EC0FF07B
:10183400000E186E000E176EABEC0EF01200040EC4
:101844001C181D10D8A41200000E186E010E176E7D
:10185400ABEC0EF0150E1F6E4B0E1E6EBE0EE82E78
:10186400FED71E2EFCD71F2EFAD700D0000E276EEF
:10187400000E266E27BE06D027501BE1050E265CFF
:10188400D8B017D0000E186E010E176EABEC0EF028
:10189400000E186E020E176E20EC0FF01A0E1E6E5C
:1018A400F80EE82EFED71E2EFCD700D0264A272A93
:1018B400E1D7000E186E000E176E20EC0FF0000E2C
:1018C400186E000E176EABEC0EF01200010E42EC17
:1018D40013F0620E1A6E000E1B6EA9EC10F0000ECF
:1018E4000001C06F000EBF6F0001C0BF08D000012F
:1018F400C05139E1070E0001BF5DD8B034D0620E8B
:101904000001BF25D96E000E0001C021DA6EDF5040
:10191400396E393A0F0E39160F0E391639500A0D31
:10192400620E0001BF25D96E000E0001C021DA6EDF
:10193400DF500F0B3A6E3B6AF3503A26F4503B22C9
:10194400D8900001BF35D96E0001C035DA6EA30E00
:10195400D926000EDA223AC0DEFF3BC0DDFF0001CB
:10196400BF4BC02BC1D7000E0001C26F000EC16F68
:101974000001C2BF08D00001C25139E1070E0001C5
:10198400C15DD8B034D09C0E0001C125D96E000EC3
:101994000001C221DA6EDF50396E393A0F0E391662
:1019A4000F0E391639500A0D9C0E0001C125D96E4F
:1019B400000E0001C221DA6EDF500F0B3A6E3B6A53
:1019C400F3503A26F4503B22D8900001C135D96E29
:1019D4000001C235DA6EB10ED926000EDA223AC001
:1019E400DEFF3BC0DDFF0001C14BC22BC1D75D5000
:1019F4005E10D8A42ED0B1C039F0B2C03AF0391E6E
:101A04003A1E394A3A2A20EEB3F0DECF3BF0DDCF5E
:101A14003CF03B1E3C1E3B4A3C2A0001A5513B24A2
:101A2400176E0001A6513C20186E000E1A6E3C0E73
:101A3400196EE2EC12F0395017263A5018220001C0
:101A4400A35117245F6E0001A4511820606E5D4AF3
:101A54005E2A8B92750E236E100E246E5FC025F0E5
:101A640060C026F06AEC08F0060E3A6E130E396E6A
:101A7400AE0EE82EFED7392EFCD73A2EFAD78C902C
:101A84001200000E456E000E446E000E476E000EEE
:101A9400466E000E496E000E486E010E42EC13F0C5
:101AA400020E436E040E426EBA0EE82EFED7422E8C
:101AB400FCD7432EFAD700D0650E236E100E246E89
:101AC4006AEC08F0C00E42EC13F0400E236E100EC8
:101AD400246E6AEC08F09C0E1A6E000E1B6EA9ECC4
:101AE40010F0800E42EC13F041D0000E186E000E80
:101AF400176E20EC0FF0000E186E000E176EABEC94
:101B04000EF08FEC0FF039043A10D8A41FD08C805B
:101B1400800E42EC13F0C00E42EC13F0F0EC09F02E
:101B24001CC04AF01DC04BF08C904AC01CF04BC046
:101B34001DF04DEC0BF0CC0E236E100E246E4AC03B
:101B440025F04BC026F06AEC08F010D025EC11F01B
:101B54008C90060E436E130E426EAE0EE82EFED728
:101B6400422EFCD7432EFAD7DAEC11F0020E61189C
:101B7400D8A41200BAD7010E42EC13F0040E3A6E48
:101B84000C0E396E340EE82EFED7392EFCD73A2EC1
:101B9400FAD765D062EC13F0000E196ED10E186EF0
:101BA40054EC13F0000E3B6E050E3B6401D00ED0D6
:101BB4003B50010D4C0EF324D96E000EF420DA6E66
:101BC400010EF5EC12F0DF6E3B2AEED7000EF5ECB9
:101BD40012F0526E5EEC13F0800E42EC13F0940E91
:101BE400236E100E246E52C025F0266A51C027F0D1
:101BF400286A50C029F02A6A6AEC08F0C00E42EC48
:101C040013F0A30E236E100E246E4EC025F0266A28
:101C14004DC027F0286A4CC029F02A6A6AEC08F003
:101C240062EC13F0000E196ED00E186E54EC13F023
:101C3400000E196E000E186E54EC13F05EEC13F0E7
:101C44000B0E3A6E0C0E396E640EE82EFED7392E4A
:101C5400FCD73A2EFAD700D0800E42EC13F0610480
:101C6400D8A4120097D70600FACF08F0FBCF09F0EA
:101C7400E9CF0AF0EACF0BF0E1CF0CF0E2CF0DF0A0
:101C8400D9CF0EF0DACF0FF0F3CF10F0F4CF11F07C
:101C9400F6CF12F0F7CF13F0F8CF14F0F5CF15F01C
:101CA400F0A038D0C00E4EEC13F081380F0B0F0BA0
:101CB400166E1650010D010EF324F66E100EF4206C
:101CC400F76E0800F55048EC13F0020E6118D8A422
:101CD40002D0030E1ED01650D8A405D06150D8A44B
:101CE40019D0010E16D0030E1618D8A408D09C0ED5
:101CF400046E000E056EE7EC10F0020E0AD0160416
:101D0400D8A402D0000E05D0020E1618D8A402D012
:101D1400040E616EF09015C0F5FF14C0F8FF13C0F7
:101D2400F7FF12C0F6FF11C0F4FF10C0F3FF0FC09D
:101D3400DAFF0EC0D9FF0DC0E2FF0CC0E1FF0BC0FB
:101D4400EAFF0AC0E9FF09C0FBFF08C0FAFF699275
:101D5400110017501810D8A426D0000E1B6E000EC8
:101D64001A6E1BBE08D01B5005E10A0E1A5CD8B0CF
:101D7400120001D012008986040E196EE40EE82EBA
:101D8400FED7192EFCD700D08996310E196E0C0E91
:101D9400E82EFED7192EFCD71A4A1B2A1BBEEBD7F6
:101DA4001B504BE1E2D717041810D8A420D0000E22
:101DB4001B6E000E1A6E1BBE06D01B503EE10A0EAF
:101DC4001A5CD8B012008986060E196E300EE82E01
:101DD400FED7192EFCD700D089962F0E196EC00E8F
:101DE400E82EFED7192EFCD71A4A1B2AE4D7020E76
:101DF40017181810D8A41200000E1B6E000E1A6ECD
:101E04001BBE06D01B5019E10A0E1A5CD8B0120092
:101E14008986040E196E5F0EE82EFED7192EFCD7A4
:101E240000F08996310E196E910EE82EFED7192E08
:101E3400FCD700F01A4A1B2AE3D7120017501810D7
:101E4400D8A426D0000E1B6E000E1A6E1BBE08D03E
:101E54001B5005E10A0E1A5CD8B0120001D0120022
:101E64008D80040E196EE40EE82EFED7192EFCD7D1
:101E740000D08D90310E196E0C0EE82EFED7192E5F
:101E8400FCD71A4A1B2A1BBEEBD71B5045E1E2D7ED
:101E940017041810D8A420D0000E1B6E000E1A6E62
:101EA4001BBE06D01B5038E10A0E1A5CD8B01200D3
:101EB4008D800A0E196E160EE82EFED7192EFCD749
:101EC4008D902B0E196EDA0EE82EFED7192EFCD744
:101ED40000D01A4A1B2AE4D7020E17181810D8A4E7
:101EE4001200000E1B6E000E1A6E1BBE06D01B5095
:101EF40013E10A0E1A5CD8B012008D80640EE82E2D
:101F0400FED78D90340E196E8E0EE82EFED7192E44
:101F1400FCD71A4A1B2AE9D71200000E416E000EA4
:101F2400406E000E3F6E000E3E6E30D0800E42ECCE
:101F340013F0020EBBEC12F0C4503B6E3C6A3B50F3
:101F4400405C4150800A3D6E3C50800A3D58D8B0F8
:101F540003D0C4CF40F0416A200EC46005D0000E07
:101F64003A6E010E396E1200CF0E236E100E246EDF
:101F7400C4CF25F0266A6AEC08F00D0E3B6EFC0E09
:101F8400E82EFED73B2EFCD73E4A3F2A3FBECED793
:101F94003F5004E1320E3E5CD8A0C8D741BE0BD0FE
:101FA400415004E1200E405CD8A005D0000E3A6EEA
:101FB400000E396E1200000E3A6E010E396E1200D8
:101FC400E70E926E100E946E000E946E000E956ED7
:101FD400FB0E936E000E966E000E896E000E8A6ED6
:101FE400000E8B6E000E8C6E000E8D6E000EC26E97
:101FF4000C0EC16E310EC06EF08677EC12F0100E2E
:10200400246E270E256E000E266E000E276E57ECEA
:1020140011F062EC13F0000E196ED00E186E54EC31
:1020240013F0000E196E000E186E54EC13F05EECF3
:1020340013F0000E186E000E176E20EC0FF0000E59
:10204400186E000E176EABEC0EF0F28E1200000E3E
:102054001F6E000E206E000E216E000E226E1B50AD
:102064001C101D101E10D8B42AD0010E236E06D0E9
:10207400D8901B361C361D361E36232A1EAEF8D7C2
:10208400D8901F362036213622361B50175C1C5040
:1020940018581D5019581E501A58D8A009D01B5052
:1020A400175E1C50185A1D50195A1E501A5A1F8078
:1020B400D8901E321D321C321B32232EE1D71FC092
:1020C40017F020C018F021C019F022C01AF0120035
:1020D400010E42EC13F0800E42EC13F0030E3A6E44
:1020E400080E396E770EE82EFED7392EFCD73A2E1D
:1020F400FAD700F0BC0E236E100E246E6AEC08F0C2
:10210400870E236E100E246E6AEC08F02B0E236EDD
:10211400100E246E6AEC08F0C00E42EC13F0C50EEB
:10212400236E100E246E6AEC08F0850E236E100EDA
:10213400246E6AEC08F0B20E236E100E246E6AEC64
:1021440008F08C908B926150D8A41200FCD762ECFA
:1021540013F0000E196ED00E186E54EC13F0000E2E
:10216400196E000E186E54EC13F05EEC13F062EC72
:1021740013F0000E196ED10E186E54EC13F0000E0D
:102184001D6E000E1C6E1DBE06D01D5011E1060E04
:102194001C5CD8B00DD01C501A24D96E1D501B20C5
:1021A400DA6E010EF5EC12F0DF6E1C4A1D2AEBD735
:1021B40020EE06F01A50D9261B50DA22000EF5EC58
:1021C40012F0DF6E5EEC13F012006AEC13F0000EF6
:1021D400036ED00E026E59EC13F0000E036E000E67
:1021E400026E59EC13F066EC13F06AEC13F0000E77
:1021F400036ED10E026E59EC13F0000E076E000E42
:10220400066E07BE06D0075011E1060E065CD8B074
:102214000DD006500424D96E07500520DA6E010E45
:1022240008EC13F0DF6E064A072AEBD720EE06F01F
:102234000450D9260550DA22000E08EC13F0DF6EA4
:1022440066EC13F01200000E196E000E186E000EEC
:10225400196E000E186E19BE06D0195025E1C80E6D
:10226400185CD8B012008A848B82170E176E120E77
:10227400E82EFED7172EFCD700D08B828A941A0E34
:10228400176EF80EE82EFED7172EFCD700D08A94CE
:102294008B92040E176EE40EE82EFED7172EFCD791
:1022A40000D0184A192AD7D71200000EC76E280E7C
:1022B400C66E000EC56E000E176E120E186E7A0EE4
:1022C400196E000E1A6E24C028F025C029F026C00D
:1022D4002AF027C02BF0020ED890283629362A3649
:1022E4002B36E82EF9D728C01BF029C01CF02AC0D1
:1022F4001DF02BC01EF029EC10F01704C86E948654
:1023040094881200186E1850F00B176E8C500F0B37
:102314008C6E17508C108C6E8C96100EE82EFED797
:1023240000D08C86100EE82EFED700D01838F00BA3
:10233400186E1850F00B176E8C500F0B8C6E1750D4
:102344008C108C6E8C96100EE82EFED700D08C86E6
:10235400100EE82EFED700D01200026E0250F00BD1
:10236400016E8C500F0B8C6E01508C108C6E8C9601
:10237400100EE82EFED700D08C86100EE82EFED765
:1023840000D00238F00B026E0250F00B016E8C503C
:102394000F0B8C6E01508C108C6E8C96100EE82EE8
:1023A400FED700D08C86100EE82EFED700D0120087
:1023B40011D08B84050E176E5C0EE82EFED7172EF7
:1023C400FCD78B94300E176E940EE82EFED7172E82
:1023D400FCD700D081A612D0ECD78B84050E176EE3
:1023E4005C0EE82EFED7172EFCD78B94300E176E9A
:1023F400940EE82EFED7172EFCD700D081B612001B
:10240400ECD7000E1D6E000E1C6E19501A10D8B4B5
:102414001CD0010E1B6E04D0D89019361A361B2A14
:102424001AAEFAD7D8901C361D361950175C1A50BC
:102434001858D8A005D01950175E1A50185A1C8085
:10244400D8901A3219321B2EEDD71CC017F01DC0BC
:1024540018F01200620E1A6E000E1B6EA9EC10F03A
:10246400940E236E100E246E68C025F0266A67C091
:1024740027F0286A66C029F02A6A6AEC08F0C00EC0
:1024840042EC13F0A30E236E100E246E64C025F0EC
:10249400266A63C027F0286A62C029F02A6A6AECB7
:1024A40008F01200E2EC0FF06150D8A403D06AECFB
:1024B40010F0FAD76104D8A403D0BDEC0DF0F4D722
:1024C400020E6118D8A403D043EC0DF0EDD7030E2F
:1024D4006118D8A403D068EC0CF0E6D7040E611898
:1024E400D8A4E2D72CEC12F0DFD7270E1A6EF50E23
:1024F400E82EFED71A2EFCD700F0330E42EC13F070
:10250400320E42EC13F0280E42EC13F00F0E42ECA4
:1025140013F0060E42EC13F0010E42EC13F0270EFA
:102524001A6EF50EE82EFED71A2EFCD700F0120014
:1025340020502110D8B418D0010E226E04D0D890A7
:1025440020362136222A21AEFAD720501E5C215093
:102554001F58D8A004D020501E5E21501F5AD89076
:1025640021322032222EF1D71EC01EF01FC01FF0D0
:102574001200186E000EC26E18C017F00F0E171658
:10258400D8901736D8901736C2503C0B1710C26E2D
:10259400C280C282C2A21200FDD700EE80F0230ED8
:1025A400EE6AE806FDE100EE4CF01D0EEE6AE80668
:1025B400FDE169906992000EF86E000154EF12F08B
:1025C40017501902F3CF1BF0F4CF1CF017501A0266
:1025D400F3501C2618501902F3501C261BC017F088
:1025E4001CC018F01200186E2AEC13F0C5862AECF1
:1025F40013F0C9CF19F02AEC13F01850D8A402D064
:10260400C58A01D0C59AC58819501200026E33ECF0
:1026140013F0C58633EC13F0C9CF03F033EC13F099
:102624000250D8A402D0C58A01D0C59AC5880350E7
:102634001200196E000E186E3A0E196005D02F0E96
:10264400196402D0010E186E18C017F0173012006A
:10265400C7B4FED7C5CF17F01F0E1716D8B4120093
:10266400F7D7C7B4FED7C5CF01F01F0E0116D8B4F3
:102674001200F7D7196E8C84195084EC11F01200F3
:10268400196E8C94195084EC11F01200036E8C8432
:102694000350AFEC11F01200036E8C940350AFECB6
:1026A40011F012002AEC13F018C0C9FF120033EC29
:1026B40013F002C0C9FF12002AEC13F0C584120003
:1026C4002AEC13F0C580120033EC13F0C584120019
:0826D40033EC13F0C580120085
=======
:1010C0006F6D652100312054696D650025782578A4
:0510D000002564000092
:1010D600270E326E000E336E74D1250E3A18D8B430
:1010E60004D03A5061EC11F06CD1000E396E000E4E
:1010F600386E000E376E03D03784254A262A25C05F
:10110600F6FF26C0F7FF0800F550300AD8B4F4D72A
:1011160025C0F6FF26C0F7FF0800F55033EC11F0A6
:10112600D8A035D0000E396E000E386E38C019F0D2
:1011360039C01AF0000E1C6E0A0E1B6EFBEC10F086
:1011460019C038F01AC039F0D00E2D6EFF0E2E6E73
:1011560025C0F6FF26C0F7FF0800F5502F6E306A4F
:101166002D502F262E5030222F503826305039221F
:10117600254A262A25C0F6FF26C0F7FF0800F550A7
:1011860033EC11F0D8A003D0D1D7378E17D025C0B5
:10119600F6FF26C0F7FF254A262A0800F5CF3AF0C3
:1011A6003A50000AD8B41200640AD8B407D00D0A1F
:1011B600D8B404D0110AD8B4E8D703D137BE15D0B5
:1011C60032C0D9FF33C0DAFFDECF35F0DDCF36F0DF
:1011D600020E3226000E332236AE44D0030E3712EC
:1011E600356C361ED8B0362A3DD032C0D9FF33C052
:1011F600DAFFDECF35F0DDCF36F0020E3226000EF6
:10120600332230D0010E3A6E050E3A18D8B432D0D9
:101216003A50020D120EF324F66E100EF420F76EFD
:101226000900F550355C0900F5503658D8A022D093
:101236003A2AEAD7010E3A6E040E3A18D8B41AD0F2
:101246003A50020D1C0EF324F66E100EF420F76EC3
:101256000900F550355C0900F5503658D8A00AD07B
:101266003A2AEAD73750800B000AD8B4CBD7800A7F
:10127600D8B4E0D738503910D8B409D037C02DF0DB
:10128600030E2D16D8B403D03806D8A03906800E22
:101296003ABE7F0E2D6E38503A5C3950800A2D5872
:1012A600D8B007D03A50385E000E3ABEFF0E395A13
:1012B60004D0000E396E000E386E37A414D037C035
:1012C6002DF0030E2D16D8B403D02D0E61EC11F0BF
:1012D60038503910D8B41ED0300E61EC11F03806F3
:1012E600D8A03906F5D738503910D8B40AD0200E10
:1012F60061EC11F03806D8A0390638503910D8A458
:10130600F6D737C02DF0030E2D16D8B403D02D0E08
:1013160061EC11F03AC034F050D03450020D120E88
:10132600F324F66E100EF420F76E0900F5CF1BF0CD
:101336000A00F5CF1CF035C019F036C01AF03DECA6
:1013460010F019C020F01AC021F0000E236E0A0E0C
:10135600226EACEC10F02050300F3A6E2BD035C018
:1013660019F036C01AF03450020D1C0EF324F66E36
:10137600100EF420F76E0900F5CF1BF00A00F5CF2A
:101386001CF03DEC10F019500F0B316E3150010D71
:10139600540EF324F66E100EF420F76E0800F5CF07
:1013A6003AF008D03750800B000AD8B4B6D7800A76
:1013B600D8B4D5D73A5061EC11F034063428D8A405
:1013C600F1D725C0F6FF26C0F7FF254A262A0800D2
:1013D600F5CF3AF03A50D8B412007FD6000E00018D
:1013E600836F000E826F000E0001856F000E846F02
:1013F600000E0001876F000E866F010E67EC11F07C
:10140600020E0001816F040E0001806FBA0EE82EF5
:10141600FED7802FFCD7812FFAD700F0650E256EF8
:10142600100E266E6BEC08F0C00E67EC11F0400E45
:10143600256E100E266E6BEC08F0600E1C6E000E0C
:101446001D6E45EC0DF0800E67EC11F058D015ECD2
:101456000EF03B043C10D8A435D08C80000E1A6EDA
:10146600000E196E83EC0BF00B0E0001816F260E39
:101476000001806F5D0EE82EFED7802FFCD7812FEE
:10148600FAD700D0800E67EC11F0C00E67EC11F0B1
:10149600DBEC0CF01BC088F01CC089F08C9088C077
:1014A6001EF089C01FF0F8EC0BF0D10E256E100E61
:1014B600266E88C027F089C028F06BEC08F0554AE4
:1014C600562A1DD05BEC0FF0000E1A6E000E196E38
:1014D60083EC0BF08C90060E0001816F130E000159
:1014E600806FAD0EE82EFED7802FFCD7812FFAD75E
:1014F60000D025EC0FF0000E566E000E556E020E53
:101506005818D8A41200A3D70600FACF0AF0FBCFCA
:101516000BF0E9CF0CF0EACF0DF0E1CF0EF0E2CF01
:101526000FF0D9CF10F0DACF11F0F3CF12F0F4CFDD
:1015360013F0F6CF14F0F7CF15F0F8CF16F0F5CF7D
:1015460017F0F0A046D0C00E73EC11F081380F0BE7
:101556000F0B186E1850010D010EF324F66E100EC7
:10156600F420F76E0800F5506DEC11F0020E5818D5
:10157600D8A413D0590E046E000E056EADEC0DF016
:1015860060500008096E615000085A243C0DF35063
:1015960009245924576E030E1BD01850D8A405D021
:1015A6005850D8A416D0010E13D0030E1818D8A47C
:1015B60005D05850D8A40DD0020E0AD01804D8A4CD
:1015C60002D0000E05D0020E1818D8A402D0630E61
:1015D600586EF09017C0F5FF16C0F8FF15C0F7FF5C
:1015E60014C0F6FF13C0F4FF12C0F3FF11C0DAFFF8
:1015F60010C0D9FF0FC0E2FF0EC0E1FF0DC0EAFF29
:101606000CC0E9FF0BC0FBFF0AC0FAFF679211008E
:10161600010E67EC11F0040E3C6E0C0E3B6E340EA0
:10162600E82EFED73B2EFCD73C2EFAD765D087ECAA
:1016360011F0000E1B6ED10E1A6E79EC11F0000E31
:101646003D6E050E3D6401D00ED03D50010D440E99
:10165600F324D96E000EF420DA6E010EE8EC10F0D9
:10166600DF6E3D2AEED7000EE8EC10F04A6E83ECF2
:1016760011F0800E67EC11F0940E256E100E266E9A
:101686004AC027F0286A49C029F02A6A48C02BF0C8
:101696002C6A6BEC08F0C00E67EC11F0A30E256EF9
:1016A600100E266E46C027F0286A45C029F02A6A21
:1016B60044C02BF02C6A6BEC08F087EC11F0000E9E
:1016C6001B6ED00E1A6E79EC11F0000E1B6E000E1A
:1016D6001A6E79EC11F083EC11F00B0E3C6E0C0EC9
:1016E6003B6E640EE82EFED73B2EFCD73C2EFAD777
:1016F60000D0800E67EC11F05804D8A4120097D7DA
:1017060019501A10D8A426D0000E1D6E000E1C6E9D
:101716001DBE08D01D5005E10A0E1C5CD8B0120093
:1017260001D012008984030E1B6E980EE82EFED798
:101736001B2EFCD78994320E1B6E580EE82EFED750
:101746001B2EFCD700D01C4A1D2A1DBEEBD71D50F0
:101756004BE1E2D719041A10D8A421D0000E1D6E51
:10176600000E1C6E1DBE06D01D503EE10A0E1C5C0E
:10177600D8B012008984070E1B6E7D0EE82EFED7A8
:101786001B2EFCD700F089942E0E1B6E730EE82ECE
:10179600FED71B2EFCD700F01C4A1D2AE3D7020EEB
:1017A60019181A10D8A41200000E1D6E000E1C6E19
:1017B6001DBE06D01D5018E10A0E1C5CD8B01200E2
:1017C6008984030E1B6E980EE82EFED71B2EFCD7BF
:1017D6008994320E1B6E580EE82EFED71B2EFCD7B0
:1017E60000D01C4A1D2AE4D712001E041F10D8A4DC
:1017F60019D0000E1A6E010E196E6AEC0CF0000E6E
:101806001A6E010E196E83EC0BF0000E1A6E000EA6
:10181600196E83EC0BF0000E1A6E000E196E6AEC50
:101826000CF01200020E1E181F10D8A419D0000EBC
:101836001A6E020E196E6AEC0CF0000E1A6E010E8C
:10184600196E83EC0BF0000E1A6E000E196E83EC07
:101856000BF0000E1A6E000E196E6AEC0CF01200F8
:10186600030E1E181F10D8A419D0000E1A6E020EF1
:10187600196E83EC0BF0000E1A6E020E196E6AECEE
:101886000CF0000E1A6E000E196E83EC0BF0000EB3
:101896001A6E000E196E6AEC0CF01200000E1A6E2B
:1018A600010E196E6AEC0CF0000E1A6E020E196E1D
:1018B60083EC0BF0000E1A6E000E196E83EC0BF023
:1018C600000E1A6E000E196E6AEC0CF0120019501A
:1018D6001A10D8A426D0000E1D6E000E1C6E1DBE5A
:1018E60008D01D5005E10A0E1C5CD8B0120001D0CC
:1018F60012008986030E1B6E980EE82EFED71B2E4D
:10190600FCD78996320E1B6E580EE82EFED71B2E7C
:10191600FCD700D01C4A1D2A1DBEEBD71D5047E13F
:10192600E2D719041A10D8A420D0000E1D6E000E9E
:101936001C6E1DBE06D01D503AE10A0E1C5CD8B0C6
:1019460012008986060E1B6E300EE82EFED71B2E61
:10195600FCD700D089962F0E1B6EC00EE82EFED740
:101966001B2EFCD71C4A1D2AE4D7020E19181A1082
:10197600D8A41200000E1D6E000E1C6E1DBE06D0F1
:101986001D5015E10A0E1C5CD8B012008986C80EDF
:1019960000D0E82EFDD78996330E1B6EA50EE82ED5
:1019A600FED71B2EFCD700F01C4A1D2AE7D71200D3
:1019B600000E256E000E246E81A034D0000E216E1E
:1019C600000E206E21BE06D021501AE1640E205C66
:1019D600D8B016D0000E21EC11F0C4501D6E1E6A50
:1019E6001D50245C2550800A1F6E1E50800A1F5809
:1019F600D8B003D0C4CF24F0256A204A212AE2D7E2
:101A060025BE0BD0255004E1040E245CD8A005D0D9
:101A1600000E1C6E020E1B6E1200000E1C6E010ED6
:101A26001B6E1200000E236E000E226E23BE06D021
:101A360023501AE1640E225CD8B016D0010E21ECB8
:101A460011F0C4501D6E1E6A1D50245C2550800A7C
:101A56001F6E1E50800A1F58D8B003D0C4CF24F082
:101A6600256A224A232AE2D724282510D8A405D09D
:101A7600000E1C6E030E1B6E1200000E1C6E040E72
:101A86001B6E120087EC11F0000E1B6ED00E1A6E44
:101A960079EC11F0000E1B6E000E1A6E79EC11F047
:101AA60083EC11F087EC11F0000E1B6ED10E1A6E4E
:101AB60079EC11F0000E206E000E1F6E20BE06D0CF
:101AC60020502DE1060E1F5CD8B029D01F501C24D3
:101AD600D96E20501D20DA6E010EE8EC10F0DF6E94
:101AE6001F501C24D96E20501D20DA6E440E1F2470
:101AF600E16E000E2020E26EE7501E6E1E380F0BC0
:101B06000F0B0A0D440E1F24E16E000E2020E26E1C
:101B1600E7500F0BF324DF6E1F4A202ACFD720EEA3
:101B260006F01C50D9261D50DA22000EE8EC10F003
:101B3600DF6E83EC11F0000E1B6ED00E1A6E79EC80
:101B460011F0000E1B6E000E1A6E79EC11F083EC8C
:101B560011F012008FEC11F0000E036ED00E026E23
:101B66007EEC11F0000E036E000E026E7EEC11F09C
:101B76008BEC11F08FEC11F0000E036ED10E026E9D
:101B86007EEC11F0000E086E000E076E08BE06D041
:101B960008502DE1060E075CD8B029D00750042462
:101BA600D96E08500520DA6E010E0EEC11F0DF6ECC
:101BB60007500424D96E08500520DA6E440E072417
:101BC600E16E000E0820E26EE750066E06380F0B37
:101BD6000F0B0A0D440E0724E16E000E0820E26E7C
:101BE600E7500F0BF324DF6E074A082ACFD720EE03
:101BF60006F00450D9260550DA22000E0EEC11F03C
:101C0600DF6E8BEC11F0000E036ED00E026E7EECD2
:101C160011F0000E036E000E026E7EEC11F08BECDE
:101C260011F01200000E436E000E426E000E416E61
:101C3600000E406E28D0800E67EC11F0050E21ECE8
:101C460011F0C4503D6E3E6A3D50425C4350800ADE
:101C56003F6E3E50800A3F58D8B003D0C4CF42F002
:101C6600436ACE0E256E100E266EC4CF27F0286A64
:101C76006BEC08F00D0E3D6EFC0EE82EFED73D2EE9
:101C8600FCD7404A412A41BED6D7415004E1320E24
:101C9600405CD8A0D0D743BE0BD0435004E1500ED1
:101CA600425CD8A005D0000E3C6E000E3B6E1200C2
:101CB600000E3C6E010E3B6E1200F30E926E100E7D
:101CC600946E000E946E000E956EFB0E936E000ED3
:101CD600896E000E8A6E000E8B6E000E8C6E000EE4
:101CE6008D6E000EC26E090EC16E310EC06EF0868C
:101CF60089EC10F0100E266E270E276E000E286E49
:101D0600000E296E8DEC0FF087EC11F0000E1B6EA5
:101D1600D00E1A6E79EC11F0000E1B6E000E1A6EC4
:101D260079EC11F083EC11F0000E1A6E000E196EAC
:101D360083EC0BF0000E1A6E000E196E6AEC0CF0B6
:101D4600F28E1200000E216E000E226E000E236E21
:101D5600000E246E1D501E101F102010D8B42AD05D
:101D6600010E256E06D0D8901D361E361F3620363B
:101D7600252A20AEF8D7D8902136223623362436A7
:101D86001D50195C1E501A581F501B5820501C58C5
:101D9600D8A009D01D50195E1E501A5A1F501B5A42
:101DA60020501C5A2180D89020321F321E321D32FC
:101DB600252EE1D721C019F022C01AF023C01BF04E
:101DC60024C01CF01200010E67EC11F0800E67ECC7
:101DD60011F0030E3C6E080E3B6E770EE82EFED712
:101DE6003B2EFCD73C2EFAD700F0BC0E256E100E0B
:101DF600266E6BEC08F0870E256E100E266E6BECC9
:101E060008F02B0E256E100E266E6BEC08F0C00E39
:101E160067EC11F0C50E256E100E266E6BEC08F001
:101E2600850E256E100E266E6BEC08F0B20E256E32
:101E3600100E266E6BEC08F08C908B925850D8A43E
:101E46001200FCD7000E1B6E000E1A6E1BBE06D0CB
:101E56001B502DE1140E1A5CD8B0120081A613D0C7
:101E66008B84050E196E550EE82EFED7192EFCD75B
:101E760000F08B94300E196E9B0EE82EFED7192EAD
:101E8600FCD700F011D08B84050E196E5C0EE82E7F
:101E9600FED7192EFCD78B94300E196E940EE82EB1
:101EA600FED7192EFCD700D01A4A1B2ACFD712000C
:101EB600000E1B6E000E1A6E000E1B6E000E1A6EC2
:101EC6001BBE06D01B5025E1C80E1A5CD8B0120006
:101ED6008A848B82170E196E120EE82EFED7192EE3
:101EE600FCD700D08B828A941A0E196EF80EE82E53
:101EF600FED7192EFCD700D08A948B92040E196E49
:101F0600E40EE82EFED7192EFCD700D01A4A1B2A5B
:101F1600D7D71200000EC76E280EC66E000EC56E0D
:101F2600000E196E120E1A6E7A0E1B6E000E1C6EC5
:101F360026C02AF027C02BF028C02CF029C02DF08F
:101F4600020ED8902A362B362C362D36E82EF9D7A7
:101F56002AC01DF02BC01EF02CC01FF02DC020F093
:101F6600A5EC0EF01904C86E948694881200010E32
:101F760067EC11F01A0E3B6EF80EE82EFED73B2EDC
:101F8600FCD700D08B9257C03DF03E6A750E256E89
:101F9600100E266E3DC027F03EC028F06BEC08F010
:101FA600C00E67EC11F0060E3C6E130E3B6EAE0EC5
:101FB600E82EFED73B2EFCD73C2EFAD7000E566EE7
:101FC600000E556E8C9012001A6E1A50F00B196E98
:101FD6008C500F0B8C6E19508C108C6E8C96100ECC
:101FE600E82EFED700D08C86100EE82EFED700D045
:101FF6001A38F00B1A6E1A50F00B196E8C500F0B24
:102006008C6E19508C108C6E8C96100EE82EFED7A6
:1020160000D08C86100EE82EFED700D01200026E7D
:102026000250F00B016E8C500F0B8C6E01508C1011
:102036008C6E8C96100EE82EFED700D08C86100E75
:10204600E82EFED700D00238F00B026E0250F00BDD
:10205600016E8C500F0B8C6E01508C108C6E8C9612
:10206600100EE82EFED700D08C86100EE82EFED776
:1020760000D01200000E1F6E000E1E6E1B501C10AC
:10208600D8B41CD0010E1D6E04D0D8901B361C3659
:102096001D2A1CAEFAD7D8901E361F361B50195C67
:1020A6001C501A58D8A005D01B50195E1C501A5A3D
:1020B6001E80D8901C321B321D2EEDD71EC019F083
:1020C6001FC01AF0120060EC0EF05850D8A403D0CE
:1020D600E6EC0EF0FAD75804D8A403D00BEC0BF0BC
:1020E600F4D7020E5818D8A403D0F1EC09F0EDD7B6
:1020F600030E5818D8A403D0BAEC0FF0E6D7630E37
:102106005818D8A4E2D7CDEC10F0DFD7270E1C6EF6
:10211600F50EE82EFED71C2EFCD700F0330E67EC2A
:1021260011F0320E67EC11F0280E67EC11F00F0E6D
:1021360067EC11F0060E67EC11F0010E67EC11F07A
:10214600270E1C6EF50EE82EFED71C2EFCD700F0CF
:10215600120022502310D8B418D0010E246E04D0D9
:10216600D89022362336242A23AEFAD72250205C72
:1021760023502158D8A004D02250205E2350215A43
:10218600D89023322232242EF1D720C020F021C04D
:1021960021F01200000E3C6E000E3B6E000E3E6EED
:1021A600000E3D6E800E67EC11F0000E21EC11F072
:1021B600CC0E256E100E266EC4CF27F0286AC3CF2C
:1021C60029F02A6A6BEC08F0EDD71A6E4FEC11F085
:1021D600C5864FEC11F0C9CF1BF04FEC11F01A5029
:1021E600D8A402D0C58A01D0C59AC5881B50120052
:1021F60019501B02F3CF1DF0F4CF1EF019501C022C
:10220600F3501E261A501B02F3501E261DC019F04D
:102216001EC01AF01200026E58EC11F0C58658EC7A
:1022260011F0C9CF03F058EC11F00250D8A402D037
:10223600C58A01D0C59AC588035012001A6E1AC005
:1022460019F00F0E1916D8901936D8901936C250B3
:102256003C0B1910C26EC280C282C2A21200FDD708
:102266001B6E000E1A6E3A0E1B6005D02F0E1B64F5
:1022760002D0010E1A6E1AC019F01930120000EEC3
:1022860044F0230EEE6AE806FDE167906792000EC1
:10229600F86E000166EF10F0C7B4FED7C5CF19F08F
:1022A6001F0E1916D8B41200F7D7C7B4FED7C5CF7C
:1022B60001F01F0E0116D8B41200F7D71B6E8C84DE
:1022C6001B50E7EC0FF012001B6E8C941B50E7ECD2
:1022D6000FF01200036E8C84035012EC10F0120003
:1022E600036E8C94035012EC10F012004FEC11F0B8
:1022F6001AC0C9FF120058EC11F002C0C9FF120043
:102306004FEC11F0C58412004FEC11F0C58012009D
:1023160058EC11F0C584120058EC11F0C58012007B
>>>>>>> parent of ff33206... 。
:020000040020DA
:08000000FFFFFFFFFFFFFFFF00
:020000040030CA
:0E000000FF021F1EFF8381FF0FC00FE00F40A5
:00000001FF
