:0400000007EF00F016
:0A0008006782A1ED0AF0CDEF10F0C1
:10100000003132334134353642373839432A3023C0
:10101000440001000A006400E803102701001000EA
:1010200000010010001915042501173220426163E8
:101030006B20746F207374617274206D656E75001F
:10104000507265737320312F322F4120746F2073DB
:10105000746F70003031323334353637383961626D
:101060006364656600536F7274696E6720537461C0
:10107000727465640054696D6520757365643A2007
:1010800025642073002020202020202020202020E4
:1010900020202000253032782F253032782F25303F
:1010A000327800253032783A253032783A2530329D
:1010B00078004120536F7274696E670057656C63E6
:1010C0006F6D652100312054696D650025782025FC
:1010D000780025640000270E326E000E336E74D146
:1010E000250E3A18D8B404D03A50ECEC10F06CD17C
:1010F000000E396E000E386E000E376E03D0378446
:10110000254A262A25C0F6FF26C0F7FF0800F5501D
:10111000300AD8B4F4D725C0F6FF26C0F7FF080080
:10112000F550BEEC10F0D8A035D0000E396E000E90
:10113000386E38C019F039C01AF0000E1C6E0A0E55
:101140001B6E98EC10F019C038F01AC039F0D00EB0
:101150002D6EFF0E2E6E25C0F6FF26C0F7FF08008D
:10116000F5502F6E306A2D502F262E5030222F50E2
:10117000382630503922254A262A25C0F6FF26C0B7
:10118000F7FF0800F550BEEC10F0D8A003D0D1D77F
:10119000378E17D025C0F6FF26C0F7FF254A262A2E
:1011A0000800F5CF3AF03A50000AD8B41200640AA9
:1011B000D8B407D00D0AD8B404D0110AD8B4E8D7EF
:1011C00003D137BE15D032C0D9FF33C0DAFFDECF2E
:1011D00035F0DDCF36F0020E3226000E332236AE69
:1011E00044D0030E3712356C361ED8B0362A3DD0A7
:1011F00032C0D9FF33C0DAFFDECF35F0DDCF36F0B5
:10120000020E3226000E332230D0010E3A6E050E49
:101210003A18D8B432D03A50020D120EF324F66EBA
:10122000100EF420F76E0900F550355C0900F550FA
:101230003658D8A022D03A2AEAD7010E3A6E040EC8
:101240003A18D8B41AD03A50020D1C0EF324F66E98
:10125000100EF420F76E0900F550355C0900F550CA
:101260003658D8A00AD03A2AEAD73750800B000A5D
:10127000D8B4CBD7800AD8B4E0D738503910D8B416
:1012800009D037C02DF0030E2D16D8B403D0380680
:10129000D8A03906800E3ABE7F0E2D6E38503A5CCB
:1012A0003950800A2D58D8B007D03A50385E000E19
:1012B0003ABEFF0E395A04D0000E396E000E386E59
:1012C00037A414D037C02DF0030E2D16D8B403D098
:1012D0002D0EECEC10F038503910D8B41ED0300E72
:1012E000ECEC10F03806D8A03906F5D73850391094
:1012F000D8B40AD0200EECEC10F03806D8A039068D
:1013000038503910D8A4F6D737C02DF0030E2D165B
:10131000D8B403D02D0EECEC10F03AC034F050D01D
:101320003450020D120EF324F66E100EF420F76EF8
:101330000900F5CF1BF00A00F5CF1CF035C019F0FD
:1013400036C01AF0C1EC0FF019C020F01AC021F01D
:10135000000E236E0A0E226E30EC10F02050300F7B
:101360003A6E2BD035C019F036C01AF03450020D49
:101370001C0EF324F66E100EF420F76E0900F5CF64
:101380001BF00A00F5CF1CF0C1EC0FF019500F0B49
:10139000316E3150010D540EF324F66E100EF42010
:1013A000F76E0800F5CF3AF008D03750800B000AEE
:1013B000D8B4B6D7800AD8B4D5D73A50ECEC10F0F0
:1013C00034063428D8A4F1D725C0F6FF26C0F7FF8D
:1013D000254A262A0800F5CF3AF03A50D8B4120030
:1013E0007FD6000E0001836F000E826F000E000199
:1013F000856F000E846F000E0001876F000E866FF0
:10140000010EF2EC10F0020E0001816F040E0001DB
:10141000806FBA0EE82EFED7802FFCD7812FFAD727
:1014200000F0650E256E100E266E6BEC08F0C00EF7
:10143000F2EC10F0400E256E100E266E6BEC08F0EC
:10144000600E1C6E000E1D6E8CEC0CF0800EF2EC2B
:1014500010F072D0000E1A6E000E196E1DEC0CF01A
:10146000000E1A6E000E196E2BEC0BF05CEC0DF0FA
:101470003B043C10D8A449D08C80800EF2EC10F0D4
:10148000C00EF2EC10F037EC0EF01BC088F01CC060
:1014900089F08C90000E00018B6F000E8A6F0001A6
:1014A0008BBF08D000018B5123E10A0E00018A5D39
:1014B000D8B01ED0000E1A6E000E196E1DEC0CF086
:1014C000000E1A6E000E196E2BEC0BF0020E0001CE
:1014D000816F040E0001806FBA0EE82EFED7802FB8
:1014E000FCD7812FFAD700F000018A4B8B2BD7D77E
:1014F000D20E256E100E266E88C027F089C028F007
:101500006BEC08F0554A562A17D0B6EC0EF08C90CA
:10151000060E0001816F130E0001806FAD0EE82EE4
:10152000FED7802FFCD7812FFAD700D098EC0FF090
:10153000000E566E000E556E020E5818D8A41200FA
:1015400089D70600FACF0AF0FBCF0BF0E9CF0CF0F9
:10155000EACF0DF0E1CF0EF0E2CF0FF0D9CF10F0CF
:10156000DACF11F0F3CF12F0F4CF13F0F6CF14F07E
:10157000F7CF15F0F8CF16F0F5CF17F0F0A04CD05C
:10158000C00EFEEC10F081380F0B0F0B186E1850C8
:10159000010D010EF324F66E100EF420F76E080014
:1015A000F550F8EC10F0020E5818D8A413D0590ECC
:1015B000046E000E056EF4EC0CF060500008096E2D
:1015C000615000085A243C0DF35009245924576EE9
:1015D000030E21D01850D8A405D05850D8A41CD040
:1015E000010E19D0030E1818D8A40BD05850D8A447
:1015F00013D0590E046E000E056EF4EC0CF0020EC2
:101600000AD01804D8A402D0000E05D0020E181873
:10161000D8A402D0630E586EF09017C0F5FF16C024
:10162000F8FF15C0F7FF14C0F6FF13C0F4FF12C097
:10163000F3FF11C0DAFF10C0D9FF0FC0E2FF0EC0E8
:10164000E1FF0DC0EAFF0CC0E9FF0BC0FBFF0AC0C1
:10165000FAFF6792110019501A10D8A426D0000E74
:101660001E6E000E1D6E1EBE08D01E5005E10A0E35
:101670001D5CD8B0120001D012008986040E1B6ECA
:10168000E40EE82EFED71B2EFCD700D08996310E33
:101690001B6E0C0EE82EFED71B2EFCD71D4A1E2AF1
:1016A0001EBEEBD71E5050E1E2D719041A10D8A481
:1016B00025D0000E1E6E000E1D6E1EBE06D01E50E2
:1016C00043E10A0E1D5CD8B012008986060E1B6E1F
:1016D000300EE82EFED71B2EFCD700D08996020EC6
:1016E0001C6E330E1B6E7B0EE82EFED71B2EFCD716
:1016F0001C2EFAD700F01D4A1E2ADFD7020E191839
:101700001A10D8A41200000E1E6E000E1D6E1EBE12
:1017100006D01E5019E10A0E1D5CD8B01200898651
:10172000040E1B6E5F0EE82EFED71B2EFCD700F0BA
:101730008996310E1B6E910EE82EFED71B2EFCD71C
:1017400000F01D4A1E2AE3D71200010EF2EC10F041
:10175000040E3C6E0C0E3B6E340EE82EFED73B2E74
:10176000FCD73C2EFAD765D012EC11F0000E1B6EA0
:10177000D10E1A6E04EC11F0000E3D6E050E3D64A4
:1017800001D00ED03D50010D440EF324D96E000E51
:10179000F420DA6E010E85EC10F0DF6E3D2AEED7F4
:1017A000000E85EC10F04A6E0EEC11F0800EF2EC9B
:1017B00010F0940E256E100E266E4AC027F0286A8F
:1017C00049C029F02A6A48C02BF02C6A6BEC08F05B
:1017D000C00EF2EC10F0A30E256E100E266E46C061
:1017E00027F0286A45C029F02A6A44C02BF02C6AE9
:1017F0006BEC08F012EC11F0000E1B6ED00E1A6E9E
:1018000004EC11F0000E1B6E000E1A6E04EC11F0C9
:101810000EEC11F00B0E3C6E0C0E3B6E640EE82EBF
:10182000FED73B2EFCD73C2EFAD700D0800EF2EC30
:1018300010F05804D8A4120097D719501A10D8A441
:1018400026D0000E1D6E000E1C6E1DBE08D01D5051
:1018500005E10A0E1C5CD8B0120001D012008D8088
:10186000040E1B6EE40EE82EFED71B2EFCD700D014
:101870008D90310E1B6E0C0EE82EFED71B2EFCD762
:101880001C4A1D2A1DBEEBD71D5045E1E2D71904A5
:101890001A10D8A420D0000E1D6E000E1C6E1DBEA6
:1018A00006D01D5038E10A0E1C5CD8B012008D80A5
:1018B000080E1B6ECA0EE82EFED71B2EFCD78D908D
:1018C0002D0E1B6E260EE82EFED71B2EFCD700D049
:1018D0001C4A1D2AE4D7020E19181A10D8A41200A7
:1018E000000E1D6E000E1C6E1DBE06D01D5013E1B5
:1018F0000A0E1C5CD8B012008D80640EE82EFED754
:101900008D90340E1B6E8E0EE82EFED71B2EFCD74C
:101910001C4A1D2AE9D7120012EC11F0000E1B6EB2
:10192000D00E1A6E04EC11F0000E1B6E000E1A6E33
:1019300004EC11F00EEC11F012EC11F0000E1B6E25
:10194000D10E1A6E04EC11F0000E206E000E1F6E08
:1019500020BE06D020502DE1060E1F5CD8B029D045
:101960001F501C24D96E20501D20DA6E010E85EC0C
:1019700010F0DF6E1F501C24D96E20501D20DA6E2F
:10198000440E1F24E16E000E2020E26EE7501E6E12
:101990001E380F0B0F0B0A0D440E1F24E16E000EB4
:1019A0002020E26EE7500F0BF324DF6E1F4A202A3F
:1019B000CFD720EE06F01C50D9261D50DA22000E9B
:1019C00085EC10F0DF6E0EEC11F0000E1B6ED00EE9
:1019D0001A6E04EC11F0000E1B6E000E1A6E04EC71
:1019E00011F00EEC11F012001AEC11F0000E036E63
:1019F000D00E026E09EC11F0000E036E000E026EA6
:101A000009EC11F016EC11F01AEC11F0000E036E57
:101A1000D10E026E09EC11F0000E086E000E076E7A
:101A200008BE06D008502DE1060E075CD8B029D0BC
:101A300007500424D96E08500520DA6E010EABEC75
:101A400010F0DF6E07500424D96E08500520DA6EBE
:101A5000440E0724E16E000E0820E26EE750066E89
:101A600006380F0B0F0B0A0D440E0724E16E000E13
:101A70000820E26EE7500F0BF324DF6E074A082AB6
:101A8000CFD720EE06F00450D9260550DA22000EFA
:101A9000ABEC10F0DF6E16EC11F0000E036ED00E02
:101AA000026E09EC11F0000E036E000E026E09ECDE
:101AB00011F016EC11F01200000E436E000E426E93
:101AC000000E416E000E406E30D0800EF2EC10F031
:101AD000020E71EC10F0C4503D6E3E6A3D50425C07
:101AE0004350800A3F6E3E50800A3F58D8B003D022
:101AF000C4CF42F0436A200EC46005D0000E3C6E95
:101B0000010E3B6E1200CF0E256E100E266EC4CF56
:101B100027F0286A6BEC08F00D0E3D6EFC0EE82EE7
:101B2000FED73D2EFCD7404A412A41BECED7415078
:101B300004E1320E405CD8A0C8D743BE0BD043505E
:101B400004E1200E425CD8A005D0000E3C6E000ED1
:101B50003B6E1200000E3C6E010E3B6E1200E70E53
:101B6000926E100E946E000E946E000E956EFB0E2B
:101B7000936E000E966E000E896E000E8A6E000E39
:101B80008B6E000E8C6E000E8D6E000EC26E0C0EF3
:101B9000C16E310EC06EF0860DEC10F0100E266E88
:101BA000270E276E000E286E000E296EE8EC0EF050
:101BB00012EC11F0000E1B6ED00E1A6E04EC11F038
:101BC000000E1B6E000E1A6E04EC11F00EEC11F0FC
:101BD000000E1A6E000E196E1DEC0CF0000E1A6E3F
:101BE000000E196E2BEC0BF0F28E1200000E216E1F
:101BF000000E226E000E236E000E246E1D501E106D
:101C00001F102010D8B42AD0010E256E06D0D8900F
:101C10001D361E361F362036252A20AEF8D7D8901E
:101C200021362236233624361D50195C1E501A5890
:101C30001F501B5820501C58D8A009D01D50195EA9
:101C40001E501A5A1F501B5A20501C5A2180D890DF
:101C500020321F321E321D32252EE1D721C019F04D
:101C600022C01AF023C01BF024C01CF01200000E8A
:101C7000216E000E206E000E236E000E226E23BE1B
:101C800006D0100E225C270E2358D8B01ED0010EAD
:101C900071EC10F0C4501D6E1E6A1D50205C215066
:101CA000800A1F6E1E50800A1F58D8B003D0C4CFC0
:101CB00020F0216A1E0EC46405D0000E1C6E030EB7
:101CC0001B6E1200224A232ADAD721BE0BD02150E4
:101CD00004E1A00E205CD8A005D0000E1C6E030EFF
:101CE0001B6E1200000E1C6E040E1B6E1200010E05
:101CF000F2EC10F0800EF2EC10F0030E3C6E080EC9
:101D00003B6E770EE82EFED73B2EFCD73C2EFAD743
:101D100000F0BC0E256E100E266E6BEC08F0870EE0
:101D2000256E100E266E6BEC08F02B0E256E100E35
:101D3000266E6BEC08F0C00EF2EC10F0C50E256EAE
:101D4000100E266E6BEC08F0850E256E100E266EBA
:101D50006BEC08F0B20E256E100E266E6BEC08F0E0
:101D60008C908B925850D8A41200FCD7000E1B6E9A
:101D7000000E1A6E000E1B6E000E1A6E1BBE06D0F1
:101D80001B5025E1C80E1A5CD8B012008A848B82E1
:101D9000170E196E120EE82EFED7192EFCD700D0A2
:101DA0008B828A941A0E196EF80EE82EFED7192E21
:101DB000FCD700D08A948B92040E196EE40EE82EA4
:101DC000FED7192EFCD700D01A4A1B2AD7D71200EB
:101DD000000EC76E280EC66E000EC56E000E196E80
:101DE000120E1A6E7A0E1B6E000E1C6E26C02AF0A2
:101DF00027C02BF028C02CF029C02DF0020ED8905F
:101E00002A362B362C362D36E82EF9D72AC01DF06F
:101E10002BC01EF02CC01FF02DC020F0F6EC0DF0F2
:101E20001904C86E948694881200010EF2EC10F02A
:101E30001A0E3B6EF80EE82EFED73B2EFCD700D0D4
:101E40008B9257C03DF03E6A750E256E100E266EC1
:101E50003DC027F03EC028F06BEC08F0C00EF2EC5D
:101E600010F0060E3C6E130E3B6EAE0EE82EFED743
:101E70003B2EFCD73C2EFAD7000E566E000E556E48
:101E80008C9012001A6E1A50F00B196E8C500F0BBA
:101E90008C6E19508C108C6E8C96100EE82EFED71E
:101EA00000D08C86100EE82EFED700D01A38F00B2A
:101EB0001A6E1A50F00B196E8C500F0B8C6E195055
:101EC0008C108C6E8C96100EE82EFED700D08C866F
:101ED000100EE82EFED700D01200026E0250F00B5A
:101EE000016E8C500F0B8C6E01508C108C6E8C968A
:101EF000100EE82EFED700D08C86100EE82EFED7EE
:101F000000D00238F00B026E0250F00B016E8C50C4
:101F10000F0B8C6E01508C108C6E8C96100EE82E70
:101F2000FED700D08C86100EE82EFED700D012000F
:101F300011D08B84050E196E5C0EE82EFED7192E7B
:101F4000FCD78B94300E196E940EE82EFED7192E06
:101F5000FCD700D081A612D0ECD78B84050E196E69
:101F60005C0EE82EFED7192EFCD78B94300E196E1E
:101F7000940EE82EFED7192EFCD700D081B61200A1
:101F8000ECD7000E1F6E000E1E6E1B501C10D8B436
:101F90001CD0010E1D6E04D0D8901B361C361D2A95
:101FA0001CAEFAD7D8901E361F361B50195C1C5039
:101FB0001A58D8A005D01B50195E1C501A5A1E8002
:101FC000D8901C321B321D2EEDD71EC019F01FC039
:101FD0001AF01200AFEC0DF05850D8A403D077ECF3
:101FE0000EF0FAD75804D8A403D0A5EC0BF0F4D720
:101FF000020E5818D8A403D0F1EC09F0EDD7030E67
:102000005818D8A403D015EC0FF0E6D7630E581873
:10201000D8A4E2D751EC10F0DFD7270E1C6EF50ED6
:10202000E82EFED71C2EFCD700F0330EF2EC10F099
:10203000320EF2EC10F0280EF2EC10F00F0EF2EC73
:1020400010F0060EF2EC10F0010EF2EC10F0270E7C
:102050001C6EF50EE82EFED71C2EFCD700F01200E9
:1020600022502310D8B418D0010E246E04D0D8907A
:1020700022362336242A23AEFAD72250205C23505E
:102080002158D8A004D02250205E2350215AD89045
:1020900023322232242EF1D720C020F021C021F09B
:1020A0001200000E3D6E000E3C6E800EF2EC10F041
:1020B000020E71EC10F0CC0E256E100E266EC4CF01
:1020C00027F0286AC3CF29F02A6A6BEC08F0820E49
:1020D0003B6EDE0EE82EFED73B2EFCD73C4A3D2A57
:1020E000E4D71A6E000EC26E1AC019F00F0E191640
:1020F000D8901936D8901936C2503C0B1910C26EC0
:10210000C280C282C2A21200FDD71A6EDAEC10F0B1
:10211000C586DAEC10F0C9CF1BF0DAEC10F01A50DB
:10212000D8A402D0C58A01D0C59AC5881B50120018
:1021300019501B02F3CF1DF0F4CF1EF019501C02F2
:10214000F3501E261A501B02F3501E261DC019F014
:102150001EC01AF01200026EE3EC10F0C586E3EC2C
:1021600010F0C9CF03F0E3EC10F00250D8A402D075
:10217000C58A01D0C59AC588035012001B6E000E97
:102180001A6E3A0E1B6005D02F0E1B6402D0010E92
:102190001A6E1AC019F01930120000EE44F0230E26
:1021A000EE6AE806FDE167906792000EF86E0001A6
:1021B000EAEF0FF0C7B4FED7C5CF19F01F0E1916FE
:1021C000D8B41200F7D7C7B4FED7C5CF01F01F0EA1
:1021D0000116D8B41200F7D71B6E8C841B5042EC4A
:1021E0000FF012001B6E8C941B5042EC0FF012008B
:1021F000036E8C8403506DEC0FF01200036E8C9410
:1022000003506DEC0FF01200DAEC10F01AC0C9FFA9
:102210001200E3EC10F002C0C9FF1200DAEC10F07B
:10222000C5841200DAEC10F0C5801200E3EC10F067
:0C223000C5841200E3EC10F0C580120021
:020000040020DA
:08000000FFFFFFFFFFFFFFFF00
:020000040030CA
:0E000000FF021F1EFF8381FF0FC00FE00F40A5
:00000001FF
