:0400000007EF00F016
:0A000800678269ED0CF0DDEF12F0E5
:10100000003132334134353642373839432A3023C0
:10101000440001000A006400E803102701001000EA
:1010200000010010001915042501173220426163E8
:101030006B20746F207374617274206D656E75001F
:10104000507265737320312F322F4120746F2073DB
:10105000746F70003031323334353637383961626D
:101060006364656600536F7274696E6720537461C0
:10107000727465640054696D6520757365643A2007
:1010800025642073002020202020202020202020E4
:1010900020202000253032782F253032782F25303F
:1010A000327800253032783A253032783A2530329D
:1010B00078004120536F7274696E670057656C63E6
:1010C0006F6D652100312054696D650025782025FC
:1010D000780025640000270E326E000E336E74D146
:1010E000250E3A18D8B404D03A50FCEC12F06CD16A
:1010F000000E396E000E386E000E376E03D0378446
:10110000254A262A25C0F6FF26C0F7FF0800F5501D
:10111000300AD8B4F4D725C0F6FF26C0F7FF080080
:10112000F550CEEC12F0D8A035D0000E396E000E7E
:10113000386E38C019F039C01AF0000E1C6E0A0E55
:101140001B6EA8EC12F019C038F01AC039F0D00E9E
:101150002D6EFF0E2E6E25C0F6FF26C0F7FF08008D
:10116000F5502F6E306A2D502F262E5030222F50E2
:10117000382630503922254A262A25C0F6FF26C0B7
:10118000F7FF0800F550CEEC12F0D8A003D0D1D76D
:10119000378E17D025C0F6FF26C0F7FF254A262A2E
:1011A0000800F5CF3AF03A50000AD8B41200640AA9
:1011B000D8B407D00D0AD8B404D0110AD8B4E8D7EF
:1011C00003D137BE15D032C0D9FF33C0DAFFDECF2E
:1011D00035F0DDCF36F0020E3226000E332236AE69
:1011E00044D0030E3712356C361ED8B0362A3DD0A7
:1011F00032C0D9FF33C0DAFFDECF35F0DDCF36F0B5
:10120000020E3226000E332230D0010E3A6E050E49
:101210003A18D8B432D03A50020D120EF324F66EBA
:10122000100EF420F76E0900F550355C0900F550FA
:101230003658D8A022D03A2AEAD7010E3A6E040EC8
:101240003A18D8B41AD03A50020D1C0EF324F66E98
:10125000100EF420F76E0900F550355C0900F550CA
:101260003658D8A00AD03A2AEAD73750800B000A5D
:10127000D8B4CBD7800AD8B4E0D738503910D8B416
:1012800009D037C02DF0030E2D16D8B403D0380680
:10129000D8A03906800E3ABE7F0E2D6E38503A5CCB
:1012A0003950800A2D58D8B007D03A50385E000E19
:1012B0003ABEFF0E395A04D0000E396E000E386E59
:1012C00037A414D037C02DF0030E2D16D8B403D098
:1012D0002D0EFCEC12F038503910D8B41ED0300E60
:1012E000FCEC12F03806D8A03906F5D73850391082
:1012F000D8B40AD0200EFCEC12F03806D8A039067B
:1013000038503910D8A4F6D737C02DF0030E2D165B
:10131000D8B403D02D0EFCEC12F03AC034F050D00B
:101320003450020D120EF324F66E100EF420F76EF8
:101330000900F5CF1BF00A00F5CF1CF035C019F0FD
:1013400036C01AF0D1EC11F019C020F01AC021F00B
:10135000000E236E0A0E226E40EC12F02050300F69
:101360003A6E2BD035C019F036C01AF03450020D49
:101370001C0EF324F66E100EF420F76E0900F5CF64
:101380001BF00A00F5CF1CF0D1EC11F019500F0B37
:10139000316E3150010D540EF324F66E100EF42010
:1013A000F76E0800F5CF3AF008D03750800B000AEE
:1013B000D8B4B6D7800AD8B4D5D73A50FCEC12F0DE
:1013C00034063428D8A4F1D725C0F6FF26C0F7FF8D
:1013D000254A262A0800F5CF3AF03A50D8B4120030
:1013E0007FD6000E316E000E306E000E256E000EA0
:1013F000246E000E276E000E266E000E296E000E63
:10140000286E29BE06D0100E285C270E2958D8B0A9
:1014100029D0000E81EC12F0C450216E226A2150B6
:10142000305C3150800A236E2250800A2358D8B095
:1014300003D0C4CF30F0316A1E0EC46404D0000E55
:10144000276E010E266E31BE0AD0315004E1A00E87
:10145000305CD8A004D0000E276E010E266E284AFC
:10146000292ACFD7020E226E040E216EBA0EE82E64
:10147000FED7212EFCD7222EFAD700D081A004D08F
:10148000000E256E000E03D0000E256E010E246E98
:101490008C90000E1A6E000E196E6DEC0EF0000EA0
:1014A0001A6E000E196E7BEC0DF0060E226E130EF6
:1014B000216EAE0EE82EFED7212EFCD7222EFAD7B3
:1014C000000E1A6E000E196E6DEC0EF0000E1A6E04
:1014D000000E196E7BEC0DF08C8024502510D8A4E2
:1014E00045D026502710D8B405D0000E206E020E2D
:1014F0001F6E1200000E2B6E000E2A6E2BBE06D041
:10150000100E2A5C270E2B58D8B01ED0000E81EC8E
:1015100012F0C450216E226A2150305C3150800A92
:10152000236E2250800A2358D8B003D0C4CF30F0A5
:10153000316A1E0EC46405D0000E206E020E1F6EAE
:1015400012002A4A2B2ADAD731BE0BD0315004E1DF
:10155000A00E305CD8A005D0000E206E020E1F6ECB
:101560001200000E206E010E1F6E1200000E2D6E76
:10157000000E2C6E2DBE06D0100E2C5C270E2D58A2
:10158000D8B01ED0010E81EC12F0C450216E226A38
:101590002150305C3150800A236E2250800A23583B
:1015A000D8B003D0C4CF30F0316A1E0EC46405D069
:1015B000000E206E040E1F6E12002C4A2D2ADAD760
:1015C00031BE0BD0315004E1A00E305CD8A005D064
:1015D000000E206E040E1F6E12008C90000E1A6E0C
:1015E000000E196E6DEC0EF0000E1A6E000E196EE4
:1015F0007BEC0DF0060E226E130E216EAE0EE82E61
:10160000FED7212EFCD7222EFAD7000E1A6E000E1E
:10161000196E6DEC0EF0000E1A6E000E196E7BEC5A
:101620000DF08C80000E2F6E000E2E6E2FBE06D099
:10163000100E2E5C270E2F58D8B01ED0010E81EC54
:1016400012F0C450216E226A2150305C3150800A61
:10165000236E2250800A2358D8B003D0C4CF30F074
:10166000316A1E0EC46405D0000E206E040E1F6E7B
:1016700012002E4A2F2ADAD731BE0BD0315004E1A6
:10168000A00E305CD8A005D0000E206E040E1F6E98
:101690001200000E206E030E1F6E1200020E1F18A5
:1016A0002010D8A442D0000E1A6E010E196E7BECE9
:1016B0000DF0150E226E4B0E216EBE0EE82EFED7DB
:1016C000212EFCD7222EFAD700D0000E246E000E59
:1016D000236E24BE06D024501BE1050E235CD8B037
:1016E00017D0000E1A6E010E196E7BEC0DF0000E75
:1016F0001A6E010E196E6DEC0EF01A0E216EF80EB8
:10170000E82EFED7212EFCD700D0234A242AE1D789
:10171000000E1A6E000E196E6DEC0EF0000E1A6EB1
:10172000000E196E7BEC0DF012001F042010D8A4DF
:1017300042D0000E1A6E020E196E7BEC0DF0150EE3
:10174000226E4B0E216EBE0EE82EFED7212EFCD748
:10175000222EFAD700D0000E266E000E256E26BE71
:1017600006D026501BE1050E255CD8B017D0000E20
:101770001A6E020E196E7BEC0DF0000E1A6E010E41
:10178000196E6DEC0EF01A0E216EF80EE82EFED7D3
:10179000212EFCD700D0254A262AE1D7000E1A6E4A
:1017A000000E196E6DEC0EF0000E1A6E000E196E22
:1017B0007BEC0DF01200030E1F182010D8A442D0AD
:1017C000000E1A6E020E196E7BEC0DF0150E226ED5
:1017D0004B0E216EBE0EE82EFED7212EFCD7222EF8
:1017E000FAD700D0000E286E000E276E28BE06D055
:1017F00028501BE1050E275CD8B017D0000E1A6EDA
:10180000020E196E7BEC0DF0000E1A6E020E196EB0
:101810006DEC0EF01A0E216EF80EE82EFED7212E7A
:10182000FCD700D0274A282AE1D7000E1A6E000EF6
:10183000196E6DEC0EF0000E1A6E000E196E7BEC38
:101840000DF01200040E1F182010D8A41200000E74
:101850001A6E010E196E7BEC0DF0150E226E4B0EFA
:10186000216EBE0EE82EFED7212EFCD7222EFAD7EF
:1018700000D0000E2A6E000E296E2ABE06D02A5015
:101880001BE1050E295CD8B017D0000E1A6E010EB0
:10189000196E7BEC0DF0000E1A6E020E196E6DECD7
:1018A0000EF01A0E216EF80EE82EFED7212EFCD770
:1018B00000D0294A2A2AE1D7000E1A6E000E196EAE
:1018C0006DEC0EF0000E1A6E000E196E7BEC0DF032
:1018D00012000600FACF0AF0FBCF0BF0E9CF0CF0B4
:1018E000EACF0DF0E1CF0EF0E2CF0FF0D9CF10F03C
:1018F000DACF11F0F3CF12F0F4CF13F0F6CF14F0EB
:10190000F7CF15F0F8CF16F0F5CF17F0F0A04CD0C8
:10191000C00E0EEC13F081380F0B0F0B186E185021
:10192000010D010EF324F66E100EF420F76E080080
:10193000F55008EC13F0020E5818D8A413D0590E25
:10194000046E000E056E44EC0FF060500008096E46
:10195000615000085A243C0DF35009245924576E55
:10196000030E21D01850D8A405D05850D8A41CD0AC
:10197000010E19D0030E1818D8A40BD05850D8A4B3
:1019800013D0590E046E000E056E44EC0FF0020EDB
:101990000AD01804D8A402D0000E05D0020E1818E0
:1019A000D8A402D0630E586EF09017C0F5FF16C091
:1019B000F8FF15C0F7FF14C0F6FF13C0F4FF12C004
:1019C000F3FF11C0DAFF10C0D9FF0FC0E2FF0EC055
:1019D000E1FF0DC0EAFF0CC0E9FF0BC0FBFF0AC02E
:1019E000FAFF67921100000E0001836F000E826FF4
:1019F000000E0001856F000E846F000E0001876FDE
:101A0000000E866F010E02EC13F0020E0001816FD2
:101A1000040E0001806FBA0EE82EFED7802FFCD78F
:101A2000812FFAD700F0650E256E100E266E6BEC36
:101A300008F0C00E02EC13F0400E256E100E266E5C
:101A40006BEC08F0600E1C6E000E1D6EDCEC0EF0F0
:101A5000800E02EC13F04AD0000E1A6E000E196EC2
:101A60006DEC0EF0000E1A6E000E196E7BEC0DF090
:101A7000ACEC0FF03B043C10D8A421D08C80800E3D
:101A800002EC13F0C00E02EC13F0F1EC09F01FC0F1
:101A900088F020C089F08C9088C01FF089C020F0A9
:101AA0004EEC0BF0D20E256E100E266E88C027F07D
:101AB00089C028F06BEC08F0554A562A17D0C6ECBE
:101AC00010F08C90060E0001816F130E0001806FE4
:101AD000AD0EE82EFED7802FFCD7812FFAD700D08D
:101AE000A8EC11F0000E566E000E556E020E58183E
:101AF000D8A41200B1D719501A10D8A426D0000EBD
:101B00001E6E000E1D6E1EBE08D01E5005E10A0E90
:101B10001D5CD8B0120001D012008986040E1B6E25
:101B2000E40EE82EFED71B2EFCD700D08996310E8E
:101B30001B6E0C0EE82EFED71B2EFCD71D4A1E2A4C
:101B40001EBEEBD71E5050E1E2D719041A10D8A4DC
:101B500025D0000E1E6E000E1D6E1EBE06D01E503D
:101B600043E10A0E1D5CD8B012008986060E1B6E7A
:101B7000300EE82EFED71B2EFCD700D08996020E21
:101B80001C6E330E1B6E7B0EE82EFED71B2EFCD771
:101B90001C2EFAD700F01D4A1E2ADFD7020E191894
:101BA0001A10D8A41200000E1E6E000E1D6E1EBE6E
:101BB00006D01E5019E10A0E1D5CD8B012008986AD
:101BC000040E1B6E5F0EE82EFED71B2EFCD700F016
:101BD0008996310E1B6E910EE82EFED71B2EFCD778
:101BE00000F01D4A1E2AE3D71200010E02EC13F08A
:101BF000040E3C6E0C0E3B6E340EE82EFED73B2ED0
:101C0000FCD73C2EFAD765D022EC13F0000E1B6EE9
:101C1000D10E1A6E14EC13F0000E3D6E050E3D64ED
:101C200001D00ED03D50010D440EF324D96E000EAC
:101C3000F420DA6E010E95EC12F0DF6E3D2AEED73D
:101C4000000E95EC12F04A6E1EEC13F0800E02ECC2
:101C500013F0940E256E100E266E4AC027F0286AE7
:101C600049C029F02A6A48C02BF02C6A6BEC08F0B6
:101C7000C00E02EC13F0A30E256E100E266E46C0A9
:101C800027F0286A45C029F02A6A44C02BF02C6A44
:101C90006BEC08F022EC13F0000E1B6ED00E1A6EE7
:101CA00014EC13F0000E1B6E000E1A6E14EC13F001
:101CB0001EEC13F00B0E3C6E0C0E3B6E640EE82E09
:101CC000FED73B2EFCD73C2EFAD700D0800E02EC7C
:101CD00013F05804D8A4120097D719501A10D8A49A
:101CE00026D0000E1D6E000E1C6E1DBE08D01D50AD
:101CF00005E10A0E1C5CD8B0120001D012008D80E4
:101D0000040E1B6EE40EE82EFED71B2EFCD700D06F
:101D10008D90310E1B6E0C0EE82EFED71B2EFCD7BD
:101D20001C4A1D2A1DBEEBD71D5045E1E2D7190400
:101D30001A10D8A420D0000E1D6E000E1C6E1DBE01
:101D400006D01D5038E10A0E1C5CD8B012008D8000
:101D50000A0E1B6E160EE82EFED71B2EFCD78D909A
:101D60002B0E1B6EDA0EE82EFED71B2EFCD700D0F2
:101D70001C4A1D2AE4D7020E19181A10D8A4120002
:101D8000000E1D6E000E1C6E1DBE06D01D5013E110
:101D90000A0E1C5CD8B012008D80640EE82EFED7AF
:101DA0008D90340E1B6E8E0EE82EFED71B2EFCD7A8
:101DB0001C4A1D2AE9D7120022EC13F0000E1B6EFC
:101DC000D00E1A6E14EC13F0000E1B6E000E1A6E7D
:101DD00014EC13F01EEC13F022EC13F0000E1B6E4B
:101DE000D10E1A6E14EC13F0000E206E000E1F6E52
:101DF00020BE06D020502DE1060E1F5CD8B029D0A1
:101E00001F501C24D96E20501D20DA6E010E95EC57
:101E100012F0DF6E1F501C24D96E20501D20DA6E88
:101E2000440E1F24E16E000E2020E26EE7501E6E6D
:101E30001E380F0B0F0B0A0D440E1F24E16E000E0F
:101E40002020E26EE7500F0BF324DF6E1F4A202A9A
:101E5000CFD720EE06F01C50D9261D50DA22000EF6
:101E600095EC12F0DF6E1EEC13F0000E1B6ED00E20
:101E70001A6E14EC13F0000E1B6E000E1A6E14ECAA
:101E800013F01EEC13F012002AEC13F0000E036E98
:101E9000D00E026E19EC13F0000E036E000E026EEF
:101EA00019EC13F026EC13F02AEC13F0000E036E7D
:101EB000D10E026E19EC13F0000E086E000E076EC4
:101EC00008BE06D008502DE1060E075CD8B029D018
:101ED00007500424D96E08500520DA6E010EBBECC1
:101EE00012F0DF6E07500424D96E08500520DA6E18
:101EF000440E0724E16E000E0820E26EE750066EE5
:101F000006380F0B0F0B0A0D440E0724E16E000E6E
:101F10000820E26EE7500F0BF324DF6E074A082A11
:101F2000CFD720EE06F00450D9260550DA22000E55
:101F3000BBEC12F0DF6E26EC13F0000E036ED00E39
:101F4000026E19EC13F0000E036E000E026E19EC17
:101F500013F026EC13F01200000E436E000E426EDA
:101F6000000E416E000E406E30D0800E02EC13F079
:101F7000020E81EC12F0C4503D6E3E6A3D50425C50
:101F80004350800A3F6E3E50800A3F58D8B003D07D
:101F9000C4CF42F0436A200EC46005D0000E3C6EF0
:101FA000010E3B6E1200CF0E256E100E266EC4CFB2
:101FB00027F0286A6BEC08F00D0E3D6EFC0EE82E43
:101FC000FED73D2EFCD7404A412A41BECED74150D4
:101FD00004E1320E405CD8A0C8D743BE0BD04350BA
:101FE00004E1200E425CD8A005D0000E3C6E000E2D
:101FF0003B6E1200000E3C6E010E3B6E1200E70EAF
:10200000926E100E946E000E946E000E956EFB0E86
:10201000936E000E966E000E896E000E8A6E000E94
:102020008B6E000E8C6E000E8D6E000EC26E0C0E4E
:10203000C16E310EC06EF0861DEC12F0100E266ED1
:10204000270E276E000E286E000E296EF8EC10F099
:1020500022EC13F0000E1B6ED00E1A6E14EC13F06F
:10206000000E1B6E000E1A6E14EC13F01EEC13F033
:10207000000E1A6E000E196E6DEC0EF0000E1A6E48
:10208000000E196E7BEC0DF0F28E1200000E216E28
:10209000000E226E000E236E000E246E1D501E10C8
:1020A0001F102010D8B42AD0010E256E06D0D8906B
:1020B0001D361E361F362036252A20AEF8D7D8907A
:1020C00021362236233624361D50195C1E501A58EC
:1020D0001F501B5820501C58D8A009D01D50195E05
:1020E0001E501A5A1F501B5A20501C5A2180D8903B
:1020F00020321F321E321D32252EE1D721C019F0A9
:1021000022C01AF023C01BF024C01CF01200010EE4
:1021100002EC13F0800E02EC13F0030E3C6E080E7E
:102120003B6E770EE82EFED73B2EFCD73C2EFAD71F
:1021300000F0BC0E256E100E266E6BEC08F0870EBC
:10214000256E100E266E6BEC08F02B0E256E100E11
:10215000266E6BEC08F0C00E02EC13F0C50E256E77
:10216000100E266E6BEC08F0850E256E100E266E96
:102170006BEC08F0B20E256E100E266E6BEC08F0BC
:102180008C908B925850D8A41200FCD7000E1B6E76
:10219000000E1A6E000E1B6E000E1A6E1BBE06D0CD
:1021A0001B5025E1C80E1A5CD8B012008A848B82BD
:1021B000170E196E120EE82EFED7192EFCD700D07E
:1021C0008B828A941A0E196EF80EE82EFED7192EFD
:1021D000FCD700D08A948B92040E196EE40EE82E80
:1021E000FED7192EFCD700D01A4A1B2AD7D71200C7
:1021F000000EC76E280EC66E000EC56E000E196E5C
:10220000120E1A6E7A0E1B6E000E1C6E26C02AF07D
:1022100027C02BF028C02CF029C02DF0020ED8903A
:102220002A362B362C362D36E82EF9D72AC01DF04B
:102230002BC01EF02CC01FF02DC020F046EC10F07B
:102240001904C86E948694881200010E02EC13F0F3
:102250001A0E3B6EF80EE82EFED73B2EFCD700D0B0
:102260008B9257C03DF03E6A750E256E100E266E9D
:102270003DC027F03EC028F06BEC08F0C00E02EC29
:1022800013F0060E3C6E130E3B6EAE0EE82EFED71C
:102290003B2EFCD73C2EFAD7000E566E000E556E24
:1022A0008C9012001A6E1A50F00B196E8C500F0B96
:1022B0008C6E19508C108C6E8C96100EE82EFED7FA
:1022C00000D08C86100EE82EFED700D01A38F00B06
:1022D0001A6E1A50F00B196E8C500F0B8C6E195031
:1022E0008C108C6E8C96100EE82EFED700D08C864B
:1022F000100EE82EFED700D01200026E0250F00B36
:10230000016E8C500F0B8C6E01508C108C6E8C9665
:10231000100EE82EFED700D08C86100EE82EFED7C9
:1023200000D00238F00B026E0250F00B016E8C50A0
:102330000F0B8C6E01508C108C6E8C96100EE82E4C
:10234000FED700D08C86100EE82EFED700D01200EB
:1023500011D08B84050E196E5C0EE82EFED7192E57
:10236000FCD78B94300E196E940EE82EFED7192EE2
:10237000FCD700D081A612D0ECD78B84050E196E45
:102380005C0EE82EFED7192EFCD78B94300E196EFA
:10239000940EE82EFED7192EFCD700D081B612007D
:1023A000ECD7000E1F6E000E1E6E1B501C10D8B412
:1023B0001CD0010E1D6E04D0D8901B361C361D2A71
:1023C0001CAEFAD7D8901E361F361B50195C1C5015
:1023D0001A58D8A005D01B50195E1C501A5A1E80DE
:1023E000D8901C321B321D2EEDD71EC019F01FC015
:1023F0001AF01200FFEC0FF05850D8A403D087EC6D
:1024000010F0FAD75804D8A403D0F5EC0DF0F4D7A7
:10241000020E5818D8A403D0F3EC0CF0EDD7030E3D
:102420005818D8A403D025EC11F0E6D7630E58183D
:10243000D8A4E2D761EC12F0DFD7270E1C6EF50EA0
:10244000E82EFED71C2EFCD700F0330E02EC13F062
:10245000320E02EC13F0280E02EC13F00F0E02EC19
:1024600013F0060E02EC13F0010E02EC13F0270E2F
:102470001C6EF50EE82EFED71C2EFCD700F01200C5
:1024800022502310D8B418D0010E246E04D0D89056
:1024900022362336242A23AEFAD72250205C23503A
:1024A0002158D8A004D02250205E2350215AD89021
:1024B00023322232242EF1D720C020F021C021F077
:1024C0001200000E3D6E000E3C6E800E02EC13F00A
:1024D000020E81EC12F0CC0E256E100E266EC4CFCB
:1024E00027F0286AC3CF29F02A6A6BEC08F0820E25
:1024F0003B6EDE0EE82EFED73B2EFCD73C4A3D2A33
:10250000E4D71A6E000EC26E1AC019F00F0E19161B
:10251000D8901936D8901936C2503C0B1910C26E9B
:10252000C280C282C2A21200FDD71A6EEAEC12F07B
:10253000C586EAEC12F0C9CF1BF0EAEC12F01A5093
:10254000D8A402D0C58A01D0C59AC5881B501200F4
:1025500019501B02F3CF1DF0F4CF1EF019501C02CE
:10256000F3501E261A501B02F3501E261DC019F0F0
:102570001EC01AF01200026EF3EC12F0C586F3ECE6
:1025800012F0C9CF03F0F3EC12F00250D8A402D03D
:10259000C58A01D0C59AC588035012001B6E000E73
:1025A0001A6E3A0E1B6005D02F0E1B6402D0010E6E
:1025B0001A6E1AC019F01930120000EE44F0230E02
:1025C000EE6AE806FDE167906792000EF86E000182
:1025D000FAEF11F0C7B4FED7C5CF19F01F0E1916C8
:1025E000D8B41200F7D7C7B4FED7C5CF01F01F0E7D
:1025F0000116D8B41200F7D71B6E8C841B5052EC16
:1026000011F012001B6E8C941B5052EC11F0120052
:10261000036E8C8403507DEC11F01200036E8C94D9
:1026200003507DEC11F01200EAEC12F01AC0C9FF61
:102630001200F3EC12F002C0C9FF1200EAEC12F033
:10264000C5841200EAEC12F0C5801200F3EC12F01F
:0C265000C5841200F3EC12F0C5801200EB
:020000040020DA
:08000000FFFFFFFFFFFFFFFF00
:020000040030CA
:0E000000FF021F1EFF8381FF0FC00FE00F40A5
:00000001FF
