:0400000007EF00F016
:0A000800678287ED0AF042EF11F065
:10100000003132334134353642373839432A3023C0
:10101000440001000A006400E803102701001000EA
:1010200000010010001915042501173220426163E8
:101030006B20746F207374617274206D656E75001F
:10104000507265737320312F322F4120746F2073DB
:10105000746F70003031323334353637383961626D
:101060006364656600536F7274696E6720537461C0
:10107000727465640054696D6520757365643A2007
:1010800025642073002020202020202020202020E4
:1010900020202000253032782F253032782F25303F
:1010A000327800253032783A253032783A2530329D
:1010B00078004120536F7274696E670057656C63E6
:1010C0006F6D652100312054696D650025782578A4
:0510D000002564000092
:1010D600270E326E000E336E74D1250E3A18D8B430
:1010E60004D03A5061EC11F06CD1000E396E000E4E
:1010F600386E000E376E03D03784254A262A25C05F
:10110600F6FF26C0F7FF0800F550300AD8B4F4D72A
:1011160025C0F6FF26C0F7FF0800F55033EC11F0A6
:10112600D8A035D0000E396E000E386E38C019F0D2
:1011360039C01AF0000E1C6E0A0E1B6EFBEC10F086
:1011460019C038F01AC039F0D00E2D6EFF0E2E6E73
:1011560025C0F6FF26C0F7FF0800F5502F6E306A4F
:101166002D502F262E5030222F503826305039221F
:10117600254A262A25C0F6FF26C0F7FF0800F550A7
:1011860033EC11F0D8A003D0D1D7378E17D025C0B5
:10119600F6FF26C0F7FF254A262A0800F5CF3AF0C3
:1011A6003A50000AD8B41200640AD8B407D00D0A1F
:1011B600D8B404D0110AD8B4E8D703D137BE15D0B5
:1011C60032C0D9FF33C0DAFFDECF35F0DDCF36F0DF
:1011D600020E3226000E332236AE44D0030E3712EC
:1011E600356C361ED8B0362A3DD032C0D9FF33C052
:1011F600DAFFDECF35F0DDCF36F0020E3226000EF6
:10120600332230D0010E3A6E050E3A18D8B432D0D9
:101216003A50020D120EF324F66E100EF420F76EFD
:101226000900F550355C0900F5503658D8A022D093
:101236003A2AEAD7010E3A6E040E3A18D8B41AD0F2
:101246003A50020D1C0EF324F66E100EF420F76EC3
:101256000900F550355C0900F5503658D8A00AD07B
:101266003A2AEAD73750800B000AD8B4CBD7800A7F
:10127600D8B4E0D738503910D8B409D037C02DF0DB
:10128600030E2D16D8B403D03806D8A03906800E22
:101296003ABE7F0E2D6E38503A5C3950800A2D5872
:1012A600D8B007D03A50385E000E3ABEFF0E395A13
:1012B60004D0000E396E000E386E37A414D037C035
:1012C6002DF0030E2D16D8B403D02D0E61EC11F0BF
:1012D60038503910D8B41ED0300E61EC11F03806F3
:1012E600D8A03906F5D738503910D8B40AD0200E10
:1012F60061EC11F03806D8A0390638503910D8A458
:10130600F6D737C02DF0030E2D16D8B403D02D0E08
:1013160061EC11F03AC034F050D03450020D120E88
:10132600F324F66E100EF420F76E0900F5CF1BF0CD
:101336000A00F5CF1CF035C019F036C01AF03DECA6
:1013460010F019C020F01AC021F0000E236E0A0E0C
:10135600226EACEC10F02050300F3A6E2BD035C018
:1013660019F036C01AF03450020D1C0EF324F66E36
:10137600100EF420F76E0900F5CF1BF00A00F5CF2A
:101386001CF03DEC10F019500F0B316E3150010D71
:10139600540EF324F66E100EF420F76E0800F5CF07
:1013A6003AF008D03750800B000AD8B4B6D7800A76
:1013B600D8B4D5D73A5061EC11F034063428D8A405
:1013C600F1D725C0F6FF26C0F7FF254A262A0800D2
:1013D600F5CF3AF03A50D8B412007FD6000E00018D
:1013E600836F000E826F000E0001856F000E846F02
:1013F600000E0001876F000E866F010E67EC11F07C
:10140600020E0001816F040E0001806FBA0EE82EF5
:10141600FED7802FFCD7812FFAD700F0650E256EF8
:10142600100E266E6BEC08F0C00E67EC11F0400E45
:10143600256E100E266E6BEC08F0600E1C6E000E0C
:101446001D6E45EC0DF0800E67EC11F058D015ECD2
:101456000EF03B043C10D8A435D08C80000E1A6EDA
:10146600000E196E83EC0BF00B0E0001816F260E39
:101476000001806F5D0EE82EFED7802FFCD7812FEE
:10148600FAD700D0800E67EC11F0C00E67EC11F0B1
:10149600DBEC0CF01BC088F01CC089F08C9088C077
:1014A6001EF089C01FF0F8EC0BF0D10E256E100E61
:1014B600266E88C027F089C028F06BEC08F0554AE4
:1014C600562A1DD05BEC0FF0000E1A6E000E196E38
:1014D60083EC0BF08C90060E0001816F130E000159
:1014E600806FAD0EE82EFED7802FFCD7812FFAD75E
:1014F60000D025EC0FF0000E566E000E556E020E53
:101506005818D8A41200A3D70600FACF0AF0FBCFCA
:101516000BF0E9CF0CF0EACF0DF0E1CF0EF0E2CF01
:101526000FF0D9CF10F0DACF11F0F3CF12F0F4CFDD
:1015360013F0F6CF14F0F7CF15F0F8CF16F0F5CF7D
:1015460017F0F0A046D0C00E73EC11F081380F0BE7
:101556000F0B186E1850010D010EF324F66E100EC7
:10156600F420F76E0800F5506DEC11F0020E5818D5
:10157600D8A413D0590E046E000E056EADEC0DF016
:1015860060500008096E615000085A243C0DF35063
:1015960009245924576E030E1BD01850D8A405D021
:1015A6005850D8A416D0010E13D0030E1818D8A47C
:1015B60005D05850D8A40DD0020E0AD01804D8A4CD
:1015C60002D0000E05D0020E1818D8A402D0630E61
:1015D600586EF09017C0F5FF16C0F8FF15C0F7FF5C
:1015E60014C0F6FF13C0F4FF12C0F3FF11C0DAFFF8
:1015F60010C0D9FF0FC0E2FF0EC0E1FF0DC0EAFF29
:101606000CC0E9FF0BC0FBFF0AC0FAFF679211008E
:10161600010E67EC11F0040E3C6E0C0E3B6E340EA0
:10162600E82EFED73B2EFCD73C2EFAD765D087ECAA
:1016360011F0000E1B6ED10E1A6E79EC11F0000E31
:101646003D6E050E3D6401D00ED03D50010D440E99
:10165600F324D96E000EF420DA6E010EE8EC10F0D9
:10166600DF6E3D2AEED7000EE8EC10F04A6E83ECF2
:1016760011F0800E67EC11F0940E256E100E266E9A
:101686004AC027F0286A49C029F02A6A48C02BF0C8
:101696002C6A6BEC08F0C00E67EC11F0A30E256EF9
:1016A600100E266E46C027F0286A45C029F02A6A21
:1016B60044C02BF02C6A6BEC08F087EC11F0000E9E
:1016C6001B6ED00E1A6E79EC11F0000E1B6E000E1A
:1016D6001A6E79EC11F083EC11F00B0E3C6E0C0EC9
:1016E6003B6E640EE82EFED73B2EFCD73C2EFAD777
:1016F60000D0800E67EC11F05804D8A4120097D7DA
:1017060019501A10D8A426D0000E1D6E000E1C6E9D
:101716001DBE08D01D5005E10A0E1C5CD8B0120093
:1017260001D012008984030E1B6E980EE82EFED798
:101736001B2EFCD78994320E1B6E580EE82EFED750
:101746001B2EFCD700D01C4A1D2A1DBEEBD71D50F0
:101756004BE1E2D719041A10D8A421D0000E1D6E51
:10176600000E1C6E1DBE06D01D503EE10A0E1C5C0E
:10177600D8B012008984070E1B6E7D0EE82EFED7A8
:101786001B2EFCD700F089942E0E1B6E730EE82ECE
:10179600FED71B2EFCD700F01C4A1D2AE3D7020EEB
:1017A60019181A10D8A41200000E1D6E000E1C6E19
:1017B6001DBE06D01D5018E10A0E1C5CD8B01200E2
:1017C6008984030E1B6E980EE82EFED71B2EFCD7BF
:1017D6008994320E1B6E580EE82EFED71B2EFCD7B0
:1017E60000D01C4A1D2AE4D712001E041F10D8A4DC
:1017F60019D0000E1A6E010E196E6AEC0CF0000E6E
:101806001A6E010E196E83EC0BF0000E1A6E000EA6
:10181600196E83EC0BF0000E1A6E000E196E6AEC50
:101826000CF01200020E1E181F10D8A419D0000EBC
:101836001A6E020E196E6AEC0CF0000E1A6E010E8C
:10184600196E83EC0BF0000E1A6E000E196E83EC07
:101856000BF0000E1A6E000E196E6AEC0CF01200F8
:10186600030E1E181F10D8A419D0000E1A6E020EF1
:10187600196E83EC0BF0000E1A6E020E196E6AECEE
:101886000CF0000E1A6E000E196E83EC0BF0000EB3
:101896001A6E000E196E6AEC0CF01200000E1A6E2B
:1018A600010E196E6AEC0CF0000E1A6E020E196E1D
:1018B60083EC0BF0000E1A6E000E196E83EC0BF023
:1018C600000E1A6E000E196E6AEC0CF0120019501A
:1018D6001A10D8A426D0000E1D6E000E1C6E1DBE5A
:1018E60008D01D5005E10A0E1C5CD8B0120001D0CC
:1018F60012008986030E1B6E980EE82EFED71B2E4D
:10190600FCD78996320E1B6E580EE82EFED71B2E7C
:10191600FCD700D01C4A1D2A1DBEEBD71D5047E13F
:10192600E2D719041A10D8A420D0000E1D6E000E9E
:101936001C6E1DBE06D01D503AE10A0E1C5CD8B0C6
:1019460012008986060E1B6E300EE82EFED71B2E61
:10195600FCD700D089962F0E1B6EC00EE82EFED740
:101966001B2EFCD71C4A1D2AE4D7020E19181A1082
:10197600D8A41200000E1D6E000E1C6E1DBE06D0F1
:101986001D5015E10A0E1C5CD8B012008986C80EDF
:1019960000D0E82EFDD78996330E1B6EA50EE82ED5
:1019A600FED71B2EFCD700F01C4A1D2AE7D71200D3
:1019B600000E256E000E246E81A034D0000E216E1E
:1019C600000E206E21BE06D021501AE1640E205C66
:1019D600D8B016D0000E21EC11F0C4501D6E1E6A50
:1019E6001D50245C2550800A1F6E1E50800A1F5809
:1019F600D8B003D0C4CF24F0256A204A212AE2D7E2
:101A060025BE0BD0255004E1040E245CD8A005D0D9
:101A1600000E1C6E020E1B6E1200000E1C6E010ED6
:101A26001B6E1200000E236E000E226E23BE06D021
:101A360023501AE1640E225CD8B016D0010E21ECB8
:101A460011F0C4501D6E1E6A1D50245C2550800A7C
:101A56001F6E1E50800A1F58D8B003D0C4CF24F082
:101A6600256A224A232AE2D724282510D8A405D09D
:101A7600000E1C6E030E1B6E1200000E1C6E040E72
:101A86001B6E120087EC11F0000E1B6ED00E1A6E44
:101A960079EC11F0000E1B6E000E1A6E79EC11F047
:101AA60083EC11F087EC11F0000E1B6ED10E1A6E4E
:101AB60079EC11F0000E206E000E1F6E20BE06D0CF
:101AC60020502DE1060E1F5CD8B029D01F501C24D3
:101AD600D96E20501D20DA6E010EE8EC10F0DF6E94
:101AE6001F501C24D96E20501D20DA6E440E1F2470
:101AF600E16E000E2020E26EE7501E6E1E380F0BC0
:101B06000F0B0A0D440E1F24E16E000E2020E26E1C
:101B1600E7500F0BF324DF6E1F4A202ACFD720EEA3
:101B260006F01C50D9261D50DA22000EE8EC10F003
:101B3600DF6E83EC11F0000E1B6ED00E1A6E79EC80
:101B460011F0000E1B6E000E1A6E79EC11F083EC8C
:101B560011F012008FEC11F0000E036ED00E026E23
:101B66007EEC11F0000E036E000E026E7EEC11F09C
:101B76008BEC11F08FEC11F0000E036ED10E026E9D
:101B86007EEC11F0000E086E000E076E08BE06D041
:101B960008502DE1060E075CD8B029D00750042462
:101BA600D96E08500520DA6E010E0EEC11F0DF6ECC
:101BB60007500424D96E08500520DA6E440E072417
:101BC600E16E000E0820E26EE750066E06380F0B37
:101BD6000F0B0A0D440E0724E16E000E0820E26E7C
:101BE600E7500F0BF324DF6E074A082ACFD720EE03
:101BF60006F00450D9260550DA22000E0EEC11F03C
:101C0600DF6E8BEC11F0000E036ED00E026E7EECD2
:101C160011F0000E036E000E026E7EEC11F08BECDE
:101C260011F01200000E436E000E426E000E416E61
:101C3600000E406E28D0800E67EC11F0050E21ECE8
:101C460011F0C4503D6E3E6A3D50425C4350800ADE
:101C56003F6E3E50800A3F58D8B003D0C4CF42F002
:101C6600436ACE0E256E100E266EC4CF27F0286A64
:101C76006BEC08F00D0E3D6EFC0EE82EFED73D2EE9
:101C8600FCD7404A412A41BED6D7415004E1320E24
:101C9600405CD8A0D0D743BE0BD0435004E1500ED1
:101CA600425CD8A005D0000E3C6E000E3B6E1200C2
:101CB600000E3C6E010E3B6E1200F30E926E100E7D
:101CC600946E000E946E000E956EFB0E936E000ED3
:101CD600896E000E8A6E000E8B6E000E8C6E000EE4
:101CE6008D6E000EC26E090EC16E310EC06EF0868C
:101CF60089EC10F0100E266E270E276E000E286E49
:101D0600000E296E8DEC0FF087EC11F0000E1B6EA5
:101D1600D00E1A6E79EC11F0000E1B6E000E1A6EC4
:101D260079EC11F083EC11F0000E1A6E000E196EAC
:101D360083EC0BF0000E1A6E000E196E6AEC0CF0B6
:101D4600F28E1200000E216E000E226E000E236E21
:101D5600000E246E1D501E101F102010D8B42AD05D
:101D6600010E256E06D0D8901D361E361F3620363B
:101D7600252A20AEF8D7D8902136223623362436A7
:101D86001D50195C1E501A581F501B5820501C58C5
:101D9600D8A009D01D50195E1E501A5A1F501B5A42
:101DA60020501C5A2180D89020321F321E321D32FC
:101DB600252EE1D721C019F022C01AF023C01BF04E
:101DC60024C01CF01200010E67EC11F0800E67ECC7
:101DD60011F0030E3C6E080E3B6E770EE82EFED712
:101DE6003B2EFCD73C2EFAD700F0BC0E256E100E0B
:101DF600266E6BEC08F0870E256E100E266E6BECC9
:101E060008F02B0E256E100E266E6BEC08F0C00E39
:101E160067EC11F0C50E256E100E266E6BEC08F001
:101E2600850E256E100E266E6BEC08F0B20E256E32
:101E3600100E266E6BEC08F08C908B925850D8A43E
:101E46001200FCD7000E1B6E000E1A6E1BBE06D0CB
:101E56001B502DE1140E1A5CD8B0120081A613D0C7
:101E66008B84050E196E550EE82EFED7192EFCD75B
:101E760000F08B94300E196E9B0EE82EFED7192EAD
:101E8600FCD700F011D08B84050E196E5C0EE82E7F
:101E9600FED7192EFCD78B94300E196E940EE82EB1
:101EA600FED7192EFCD700D01A4A1B2ACFD712000C
:101EB600000E1B6E000E1A6E000E1B6E000E1A6EC2
:101EC6001BBE06D01B5025E1C80E1A5CD8B0120006
:101ED6008A848B82170E196E120EE82EFED7192EE3
:101EE600FCD700D08B828A941A0E196EF80EE82E53
:101EF600FED7192EFCD700D08A948B92040E196E49
:101F0600E40EE82EFED7192EFCD700D01A4A1B2A5B
:101F1600D7D71200000EC76E280EC66E000EC56E0D
:101F2600000E196E120E1A6E7A0E1B6E000E1C6EC5
:101F360026C02AF027C02BF028C02CF029C02DF08F
:101F4600020ED8902A362B362C362D36E82EF9D7A7
:101F56002AC01DF02BC01EF02CC01FF02DC020F093
:101F6600A5EC0EF01904C86E948694881200010E32
:101F760067EC11F01A0E3B6EF80EE82EFED73B2EDC
:101F8600FCD700D08B9257C03DF03E6A750E256E89
:101F9600100E266E3DC027F03EC028F06BEC08F010
:101FA600C00E67EC11F0060E3C6E130E3B6EAE0EC5
:101FB600E82EFED73B2EFCD73C2EFAD7000E566EE7
:101FC600000E556E8C9012001A6E1A50F00B196E98
:101FD6008C500F0B8C6E19508C108C6E8C96100ECC
:101FE600E82EFED700D08C86100EE82EFED700D045
:101FF6001A38F00B1A6E1A50F00B196E8C500F0B24
:102006008C6E19508C108C6E8C96100EE82EFED7A6
:1020160000D08C86100EE82EFED700D01200026E7D
:102026000250F00B016E8C500F0B8C6E01508C1011
:102036008C6E8C96100EE82EFED700D08C86100E75
:10204600E82EFED700D00238F00B026E0250F00BDD
:10205600016E8C500F0B8C6E01508C108C6E8C9612
:10206600100EE82EFED700D08C86100EE82EFED776
:1020760000D01200000E1F6E000E1E6E1B501C10AC
:10208600D8B41CD0010E1D6E04D0D8901B361C3659
:102096001D2A1CAEFAD7D8901E361F361B50195C67
:1020A6001C501A58D8A005D01B50195E1C501A5A3D
:1020B6001E80D8901C321B321D2EEDD71EC019F083
:1020C6001FC01AF0120060EC0EF05850D8A403D0CE
:1020D600E6EC0EF0FAD75804D8A403D00BEC0BF0BC
:1020E600F4D7020E5818D8A403D0F1EC09F0EDD7B6
:1020F600030E5818D8A403D0BAEC0FF0E6D7630E37
:102106005818D8A4E2D7CDEC10F0DFD7270E1C6EF6
:10211600F50EE82EFED71C2EFCD700F0330E67EC2A
:1021260011F0320E67EC11F0280E67EC11F00F0E6D
:1021360067EC11F0060E67EC11F0010E67EC11F07A
:10214600270E1C6EF50EE82EFED71C2EFCD700F0CF
:10215600120022502310D8B418D0010E246E04D0D9
:10216600D89022362336242A23AEFAD72250205C72
:1021760023502158D8A004D02250205E2350215A43
:10218600D89023322232242EF1D720C020F021C04D
:1021960021F01200000E3C6E000E3B6E000E3E6EED
:1021A600000E3D6E800E67EC11F0000E21EC11F072
:1021B600CC0E256E100E266EC4CF27F0286AC3CF2C
:1021C60029F02A6A6BEC08F0EDD71A6E4FEC11F085
:1021D600C5864FEC11F0C9CF1BF04FEC11F01A5029
:1021E600D8A402D0C58A01D0C59AC5881B50120052
:1021F60019501B02F3CF1DF0F4CF1EF019501C022C
:10220600F3501E261A501B02F3501E261DC019F04D
:102216001EC01AF01200026E58EC11F0C58658EC7A
:1022260011F0C9CF03F058EC11F00250D8A402D037
:10223600C58A01D0C59AC588035012001A6E1AC005
:1022460019F00F0E1916D8901936D8901936C250B3
:102256003C0B1910C26EC280C282C2A21200FDD708
:102266001B6E000E1A6E3A0E1B6005D02F0E1B64F5
:1022760002D0010E1A6E1AC019F01930120000EEC3
:1022860044F0230EEE6AE806FDE167906792000EC1
:10229600F86E000166EF10F0C7B4FED7C5CF19F08F
:1022A6001F0E1916D8B41200F7D7C7B4FED7C5CF7C
:1022B60001F01F0E0116D8B41200F7D71B6E8C84DE
:1022C6001B50E7EC0FF012001B6E8C941B50E7ECD2
:1022D6000FF01200036E8C84035012EC10F0120003
:1022E600036E8C94035012EC10F012004FEC11F0B8
:1022F6001AC0C9FF120058EC11F002C0C9FF120043
:102306004FEC11F0C58412004FEC11F0C58012009D
:1023160058EC11F0C584120058EC11F0C58012007B
:020000040020DA
:08000000FFFFFFFFFFFFFFFF00
:020000040030CA
:0E000000FF021F1EFF8381FF0FC00FE00F40A5
:00000001FF
